{"abi":[{"type":"constructor","inputs":[{"name":"_cricketApiKey","type":"string","internalType":"string"}],"stateMutability":"nonpayable"},{"type":"function","name":"contestPlayerPerformances","inputs":[{"name":"","type":"bytes32","internalType":"bytes32"},{"name":"","type":"uint256","internalType":"uint256"}],"outputs":[{"name":"playerId","type":"string","internalType":"string"},{"name":"runs","type":"uint256","internalType":"uint256"},{"name":"balls","type":"uint256","internalType":"uint256"},{"name":"fours","type":"uint256","internalType":"uint256"},{"name":"sixes","type":"uint256","internalType":"uint256"},{"name":"strikeRate","type":"uint256","internalType":"uint256"},{"name":"overs","type":"uint256","internalType":"uint256"},{"name":"maidens","type":"uint256","internalType":"uint256"},{"name":"wickets","type":"uint256","internalType":"uint256"},{"name":"runsConceded","type":"uint256","internalType":"uint256"},{"name":"economy","type":"uint256","internalType":"uint256"},{"name":"wides","type":"uint256","internalType":"uint256"},{"name":"noBalls","type":"uint256","internalType":"uint256"},{"name":"catches","type":"uint256","internalType":"uint256"},{"name":"runouts","type":"uint256","internalType":"uint256"},{"name":"stumpings","type":"uint256","internalType":"uint256"},{"name":"fantasyPoints","type":"uint256","internalType":"uint256"}],"stateMutability":"view"},{"type":"function","name":"contestPrizeBreakdowns","inputs":[{"name":"","type":"bytes32","internalType":"bytes32"},{"name":"","type":"uint256","internalType":"uint256"}],"outputs":[{"name":"rank","type":"uint256","internalType":"uint256"},{"name":"percentage","type":"uint256","internalType":"uint256"}],"stateMutability":"view"},{"type":"function","name":"contestTeams","inputs":[{"name":"","type":"bytes32","internalType":"bytes32"},{"name":"","type":"uint256","internalType":"uint256"}],"outputs":[{"name":"userAddress","type":"address","internalType":"address"},{"name":"contestId","type":"bytes32","internalType":"bytes32"},{"name":"captainId","type":"string","internalType":"string"},{"name":"viceCaptainId","type":"string","internalType":"string"},{"name":"totalPoints","type":"uint256","internalType":"uint256"},{"name":"rank","type":"uint256","internalType":"uint256"}],"stateMutability":"view"},{"type":"function","name":"contests","inputs":[{"name":"","type":"bytes32","internalType":"bytes32"}],"outputs":[{"name":"contestId","type":"bytes32","internalType":"bytes32"},{"name":"matchId","type":"string","internalType":"string"},{"name":"ipfsHash","type":"string","internalType":"string"},{"name":"entryFee","type":"uint256","internalType":"uint256"},{"name":"startTime","type":"uint256","internalType":"uint256"},{"name":"endTime","type":"uint256","internalType":"uint256"},{"name":"prizePool","type":"uint256","internalType":"uint256"},{"name":"participantCount","type":"uint256","internalType":"uint256"},{"name":"status","type":"uint8","internalType":"enum ContestData.MatchStatus"},{"name":"scoresFinalized","type":"bool","internalType":"bool"}],"stateMutability":"view"},{"type":"function","name":"createContest","inputs":[{"name":"matchId","type":"string","internalType":"string"},{"name":"ipfsHash","type":"string","internalType":"string"},{"name":"entryFee","type":"uint256","internalType":"uint256"},{"name":"startTime","type":"uint256","internalType":"uint256"},{"name":"endTime","type":"uint256","internalType":"uint256"}],"outputs":[{"name":"","type":"bytes32","internalType":"bytes32"}],"stateMutability":"nonpayable"},{"type":"function","name":"defaultPrizeBreakdown","inputs":[{"name":"","type":"uint256","internalType":"uint256"}],"outputs":[{"name":"rank","type":"uint256","internalType":"uint256"},{"name":"percentage","type":"uint256","internalType":"uint256"}],"stateMutability":"view"},{"type":"function","name":"distributePrizes","inputs":[{"name":"contestId","type":"bytes32","internalType":"bytes32"}],"outputs":[],"stateMutability":"nonpayable"},{"type":"function","name":"fdcDataConsumer","inputs":[],"outputs":[{"name":"","type":"address","internalType":"contract FDCDataConsumer"}],"stateMutability":"view"},{"type":"function","name":"finalizeScores","inputs":[{"name":"contestId","type":"bytes32","internalType":"bytes32"},{"name":"proof","type":"tuple","internalType":"struct IJsonApi.Proof","components":[{"name":"merkleProof","type":"bytes32[]","internalType":"bytes32[]"},{"name":"data","type":"tuple","internalType":"struct IJsonApi.Response","components":[{"name":"attestationType","type":"bytes32","internalType":"bytes32"},{"name":"sourceId","type":"bytes32","internalType":"bytes32"},{"name":"votingRound","type":"uint64","internalType":"uint64"},{"name":"lowestUsedTimestamp","type":"uint64","internalType":"uint64"},{"name":"requestBody","type":"tuple","internalType":"struct IJsonApi.RequestBody","components":[{"name":"url","type":"string","internalType":"string"},{"name":"postprocessJq","type":"string","internalType":"string"},{"name":"abi_signature","type":"string","internalType":"string"}]},{"name":"responseBody","type":"tuple","internalType":"struct IJsonApi.ResponseBody","components":[{"name":"abi_encoded_data","type":"bytes","internalType":"bytes"}]}]}]}],"outputs":[],"stateMutability":"nonpayable"},{"type":"function","name":"getAllContestTeams","inputs":[{"name":"contestId","type":"bytes32","internalType":"bytes32"}],"outputs":[{"name":"","type":"tuple[]","internalType":"struct ContestData.UserTeam[]","components":[{"name":"userAddress","type":"address","internalType":"address"},{"name":"contestId","type":"bytes32","internalType":"bytes32"},{"name":"playerIds","type":"string[]","internalType":"string[]"},{"name":"captainId","type":"string","internalType":"string"},{"name":"viceCaptainId","type":"string","internalType":"string"},{"name":"totalPoints","type":"uint256","internalType":"uint256"},{"name":"rank","type":"uint256","internalType":"uint256"}]}],"stateMutability":"view"},{"type":"function","name":"getContest","inputs":[{"name":"contestId","type":"bytes32","internalType":"bytes32"}],"outputs":[{"name":"","type":"tuple","internalType":"struct ContestData.Contest","components":[{"name":"contestId","type":"bytes32","internalType":"bytes32"},{"name":"matchId","type":"string","internalType":"string"},{"name":"ipfsHash","type":"string","internalType":"string"},{"name":"entryFee","type":"uint256","internalType":"uint256"},{"name":"startTime","type":"uint256","internalType":"uint256"},{"name":"endTime","type":"uint256","internalType":"uint256"},{"name":"prizePool","type":"uint256","internalType":"uint256"},{"name":"participantCount","type":"uint256","internalType":"uint256"},{"name":"status","type":"uint8","internalType":"enum ContestData.MatchStatus"},{"name":"scoresFinalized","type":"bool","internalType":"bool"}]}],"stateMutability":"view"},{"type":"function","name":"getMatchContests","inputs":[{"name":"matchId","type":"string","internalType":"string"}],"outputs":[{"name":"","type":"bytes32[]","internalType":"bytes32[]"}],"stateMutability":"view"},{"type":"function","name":"getPlayerPerformances","inputs":[{"name":"contestId","type":"bytes32","internalType":"bytes32"}],"outputs":[{"name":"","type":"tuple[]","internalType":"struct ContestData.PlayerPerformance[]","components":[{"name":"playerId","type":"string","internalType":"string"},{"name":"runs","type":"uint256","internalType":"uint256"},{"name":"balls","type":"uint256","internalType":"uint256"},{"name":"fours","type":"uint256","internalType":"uint256"},{"name":"sixes","type":"uint256","internalType":"uint256"},{"name":"strikeRate","type":"uint256","internalType":"uint256"},{"name":"overs","type":"uint256","internalType":"uint256"},{"name":"maidens","type":"uint256","internalType":"uint256"},{"name":"wickets","type":"uint256","internalType":"uint256"},{"name":"runsConceded","type":"uint256","internalType":"uint256"},{"name":"economy","type":"uint256","internalType":"uint256"},{"name":"wides","type":"uint256","internalType":"uint256"},{"name":"noBalls","type":"uint256","internalType":"uint256"},{"name":"catches","type":"uint256","internalType":"uint256"},{"name":"runouts","type":"uint256","internalType":"uint256"},{"name":"stumpings","type":"uint256","internalType":"uint256"},{"name":"fantasyPoints","type":"uint256","internalType":"uint256"}]}],"stateMutability":"view"},{"type":"function","name":"getUserTeam","inputs":[{"name":"contestId","type":"bytes32","internalType":"bytes32"},{"name":"userAddress","type":"address","internalType":"address"}],"outputs":[{"name":"","type":"tuple","internalType":"struct ContestData.UserTeam","components":[{"name":"userAddress","type":"address","internalType":"address"},{"name":"contestId","type":"bytes32","internalType":"bytes32"},{"name":"playerIds","type":"string[]","internalType":"string[]"},{"name":"captainId","type":"string","internalType":"string"},{"name":"viceCaptainId","type":"string","internalType":"string"},{"name":"totalPoints","type":"uint256","internalType":"uint256"},{"name":"rank","type":"uint256","internalType":"uint256"}]}],"stateMutability":"view"},{"type":"function","name":"matchContestCount","inputs":[{"name":"","type":"string","internalType":"string"}],"outputs":[{"name":"","type":"uint256","internalType":"uint256"}],"stateMutability":"view"},{"type":"function","name":"matchContests","inputs":[{"name":"","type":"string","internalType":"string"},{"name":"","type":"uint256","internalType":"uint256"}],"outputs":[{"name":"","type":"bytes32","internalType":"bytes32"}],"stateMutability":"view"},{"type":"function","name":"owner","inputs":[],"outputs":[{"name":"","type":"address","internalType":"address"}],"stateMutability":"view"},{"type":"function","name":"renounceOwnership","inputs":[],"outputs":[],"stateMutability":"nonpayable"},{"type":"function","name":"requestMatchData","inputs":[{"name":"contestId","type":"bytes32","internalType":"bytes32"}],"outputs":[],"stateMutability":"payable"},{"type":"function","name":"setContestPrizeBreakdown","inputs":[{"name":"contestId","type":"bytes32","internalType":"bytes32"},{"name":"prizeBreakdown","type":"tuple[]","internalType":"struct ContestData.PrizeBreakdown[]","components":[{"name":"rank","type":"uint256","internalType":"uint256"},{"name":"percentage","type":"uint256","internalType":"uint256"}]}],"outputs":[],"stateMutability":"nonpayable"},{"type":"function","name":"setDefaultPrizeBreakdown","inputs":[{"name":"prizeBreakdown","type":"tuple[]","internalType":"struct ContestData.PrizeBreakdown[]","components":[{"name":"rank","type":"uint256","internalType":"uint256"},{"name":"percentage","type":"uint256","internalType":"uint256"}]}],"outputs":[],"stateMutability":"nonpayable"},{"type":"function","name":"submitTeam","inputs":[{"name":"contestId","type":"bytes32","internalType":"bytes32"},{"name":"playerIds","type":"string[]","internalType":"string[]"},{"name":"captainId","type":"string","internalType":"string"},{"name":"viceCaptainId","type":"string","internalType":"string"}],"outputs":[],"stateMutability":"payable"},{"type":"function","name":"transferOwnership","inputs":[{"name":"newOwner","type":"address","internalType":"address"}],"outputs":[],"stateMutability":"nonpayable"},{"type":"function","name":"updateContestStatus","inputs":[{"name":"contestId","type":"bytes32","internalType":"bytes32"},{"name":"status","type":"uint8","internalType":"enum ContestData.MatchStatus"}],"outputs":[],"stateMutability":"nonpayable"},{"type":"function","name":"updateCricketApiKey","inputs":[{"name":"_cricketApiKey","type":"string","internalType":"string"}],"outputs":[],"stateMutability":"nonpayable"},{"type":"function","name":"userContestEntries","inputs":[{"name":"","type":"bytes32","internalType":"bytes32"},{"name":"","type":"address","internalType":"address"}],"outputs":[{"name":"","type":"uint256","internalType":"uint256"}],"stateMutability":"view"},{"type":"event","name":"ContestCreated","inputs":[{"name":"contestId","type":"bytes32","indexed":true,"internalType":"bytes32"},{"name":"matchId","type":"string","indexed":false,"internalType":"string"},{"name":"entryFee","type":"uint256","indexed":false,"internalType":"uint256"}],"anonymous":false},{"type":"event","name":"OwnershipTransferred","inputs":[{"name":"previousOwner","type":"address","indexed":true,"internalType":"address"},{"name":"newOwner","type":"address","indexed":true,"internalType":"address"}],"anonymous":false},{"type":"event","name":"PrizesDistributed","inputs":[{"name":"contestId","type":"bytes32","indexed":true,"internalType":"bytes32"},{"name":"winners","type":"address[]","indexed":false,"internalType":"address[]"},{"name":"amounts","type":"uint256[]","indexed":false,"internalType":"uint256[]"}],"anonymous":false},{"type":"event","name":"ScoresFinalized","inputs":[{"name":"contestId","type":"bytes32","indexed":true,"internalType":"bytes32"},{"name":"matchId","type":"string","indexed":false,"internalType":"string"}],"anonymous":false},{"type":"event","name":"TeamSubmitted","inputs":[{"name":"contestId","type":"bytes32","indexed":true,"internalType":"bytes32"},{"name":"user","type":"address","indexed":true,"internalType":"address"},{"name":"teamIndex","type":"uint256","indexed":false,"internalType":"uint256"}],"anonymous":false},{"type":"error","name":"OwnableInvalidOwner","inputs":[{"name":"owner","type":"address","internalType":"address"}]},{"type":"error","name":"OwnableUnauthorizedAccount","inputs":[{"name":"account","type":"address","internalType":"address"}]}],"bytecode":{"object":"0x6080604052346102f557615ff58038038061001981610319565b928339810160209081838203126102f55782516001600160401b03938482116102f55701601f908282820112156102f55780518581116101d257601f199161006682850184168701610319565b948286528683830101116102f557859060005b8381106102e15750506000918501015233156102c85760008054336001600160a01b031980831682178455976001600160a01b0396909390928716907f8be0079c531659141344cd1fd0a4f28419497f9722a3daafe3b4186f6b6457e09080a38051908282116101d2576002948554916001958684811c941680156102be575b8a8510146102a8578383869511610253575b50899284116001146101f357506000926101e8575b5050600019600383901b1c191690831b1783555b6040519061203490818301908111838210176101d2578291613fc1833903906000f09081156101c6576101b79561019f946101889316908254161781556101796102fa565b9081526113888582015261033e565b6101906102fa565b908152610bb88382015261033e565b6107d06101aa6102fa565b916003835282015261033e565b604051613c2b90816103968239f35b6040513d6000823e3d90fd5b634e487b7160e01b600052604160045260246000fd5b015190503880610120565b8694929192169187600052896000209260005b8b82821061023d5750508411610224575b505050811b018355610134565b015160001960f88460031b161c19169055388080610217565b8385015186558997909501949384019301610206565b909192935087600052896000208480870160051c8201928c881061029f575b9187968a92969594930160051c01915b82811061029057505061010b565b60008155879650899101610282565b92508192610272565b634e487b7160e01b600052602260045260246000fd5b93607f16936100f9565b604051631e4fbdf760e01b815260006004820152602490fd5b818101830151878201840152879201610079565b600080fd5b60408051919082016001600160401b038111838210176101d257604052565b6040519190601f01601f191682016001600160401b038111838210176101d257604052565b600a54680100000000000000008110156101d2576001810180600a5581101561037f576020600191600a6000528160002090831b0192805184550151910155565b634e487b7160e01b600052603260045260246000fdfe610100604052600436101561001357600080fd5b60003560e01c8063051f6f8414612a6557806310dd371c1461246957806324d07651146122895780632ecacb2e1461200d578063447ab02214611fe45780635bb0d0db1461168857806364877505146114435780636753c5891461133257806368432bfe1461127e5780636e5e3f5e1461121f578063715018a6146111c657806385fb8ab914610bf257806387e7d22a14610b795780638a46551614610b505780638da5cb5b14610b275780638facd93f146109b1578063a0505c35146108ed578063a1e516fd146108a5578063a7ce04fb146107cc578063ba53fd8d14610684578063be01e9b714610628578063ea269c8414610549578063eaa150d3146103d1578063ee413bea1461038c578063f22d36a2146101cb5763f2fde38b1461013b57600080fd5b346101c65760203660031901126101c6576004356001600160a01b03818116918290036101c65761016a613a9a565b81156101ad57600054826001600160601b0360a01b821617600055167f8be0079c531659141344cd1fd0a4f28419497f9722a3daafe3b4186f6b6457e0600080a3005b604051631e4fbdf760e01b815260006004820152602490fd5b600080fd5b346101c6576020806003193601126101c657604051906101ea82612c49565b60008252606081830152606060408301526000606083015260006080830152600060a0830152600060c0830152600060e0830152610100600081840152600061012080940152600435600052600382526040600020926040519361024d85612c49565b8054855260405161026c816102658160018601612f44565b0382612c9c565b8486019081526040519261028e846102878160028701612f44565b0385612c9c565b60408701938452600383015494606088019586526004840154906080890191825260058501549460a08a01958652600681015460c08b01908152600860078301549260e08d0193845201549660ff881694848d019560048110156103765761036b9860ff8f8a90610343948b52019b60081c1615158b526040519e8f9e8f9181835251910152519a8d61032f6101409d8e6040840152610160830190612dde565b9151906060601f1982850301910152612dde565b9a5160808d01525160a08c01525160c08b01525160e08a015251908801525190860190613025565b511515908301520390f35b634e487b7160e01b600052602160045260246000fd5b346101c65761039a36612ed8565b906000526009602052604060002080548210156101c6576040916103bd91612d9f565b506001815491015482519182526020820152f35b346101c6576020806003193601126101c6576004356001600160401b0381116101c657610402903690600401612d1f565b9161040b613a9a565b6000805b8481106105275750612710610424911461315a565b600a92600a546000600a55806104b2575b5060005b81811061044257005b61044d81838661313d565b908554600160401b81101561049c5761046c6001918281018955612d4f565b919091610486578584600195358455013591015501610439565b634e487b7160e01b600052600060045260246000fd5b634e487b7160e01b600052604160045260246000fd5b60016001600160ff1b038216820361051157600a6000527fc65a7bb8d6351c1cf70c95a316cc6a92839c986682d98bc35f958f4883f9d2a89160011b8201915b828110610500575050610435565b6000808255828201556002016104f2565b634e487b7160e01b600052601160045260246000fd5b906105426001918461053a85898961313d565b01359061314d565b910161040f565b346101c65760203660031901126101c65760043560005260036020526040600020805460405191610588836105818160018501612f44565b0384612c9c565b60ff60405161059e816102658160028701612f44565b600383015492600481015460058201546006830154916105ee60086007860154950154956105e06040519b8c809c6020610140928392815201528c0190612dde565b908a820360408c0152612dde565b966060890152608088015260a087015260c086015260e08501526106186101008501838316613025565b60081c1615156101208301520390f35b346101c65760203660031901126101c6576004356001600160401b0381116101c657610671602061065e81933690600401612cd8565b8160405193828580945193849201612dbb565b8101600881520301902054604051908152f35b346101c65761069236612ed8565b90600052600560205260406000209081548110156101c6576106b391613009565b506040516106c5816102658185612f44565b6001820154608052600282015460a052600382015460e05260048201549160058101546006820154600783015460088401546009850154600a86015490600b87015492600c88015494600d89015496600e8a0154986107406010600f8d01549c01549c60405160c0526102208060c0515260c0510190612dde565b9c608051602060c051015260a051604060c051015260e051606060c0510152608060c051015260a060c051015260c08051015260e060c051015261010060c051015261012060c051015261014060c051015261016060c051015261018060c05101526101a060c05101526101c060c05101526101e060c051015261020060c051015260c051900360c051f35b346101c6576020806003193601126101c657600435600052600481526040600020908154916107fa83612fda565b926108086040519485612c9c565b8084528284018092600052836000206000915b8383106108825750505050604051918083019381845251809452604083019360408160051b85010192916000955b8287106108565785850386f35b909192938280610872600193603f198a82030186528851612e19565b9601920196019592919092610849565b600786600192610894859a999a61362b565b81520192019201919095949561081b565b346101c65760403660031901126101c6576108be612e03565b600435600052600660205260406000209060018060a01b03166000526020526020604060002054604051908152f35b346101c6576020806003193601126101c6576004356001600160401b0381116101c6578161065e610922923690600401612cd8565b8101600781520301902060405190818382549182815201908192600052846000209060005b8682821061099d57868661095d82880383612c9c565b604051928392818401908285525180915260408401929160005b82811061098657505050500390f35b835185528695509381019392810192600101610977565b835485529093019260019283019201610947565b346101c6576020806003193601126101c6576001600160401b036004358181116101c6576109e3903690600401612cd8565b916109ec613a9a565b825191821161049c57610a00600254612f0a565b601f8111610acd575b50602090601f8311600114610a4c57508190610a3c93600092610a41575b50508160011b916000199060031b1c19161790565b600255005b015190508380610a27565b90601f1983169360026000527f405787fa12a823e0f2b7631cc41b3ba8828b3321ca811111fa75cd3aa3bb5ace926000905b868210610ab55750508360019510610a9c575b505050811b01600255005b015160001960f88460031b161c19169055828080610a91565b80600185968294968601518155019501930190610a7e565b610b179060026000527f405787fa12a823e0f2b7631cc41b3ba8828b3321ca811111fa75cd3aa3bb5ace601f850160051c81019160208610610b1d575b601f0160051c01906130c3565b83610a09565b9091508190610b0a565b346101c65760003660031901126101c6576000546040516001600160a01b039091168152602090f35b346101c65760003660031901126101c6576001546040516001600160a01b039091168152602090f35b346101c65760403660031901126101c6576004356001600160401b0381116101c657610ba9903690600401612cd8565b610bc56020602435928160405193828580945193849201612dbb565b8101600781520301902080548210156101c657602091610be491612ff1565b90546040519160031b1c8152f35b60803660031901126101c6576024356001600160401b038082116101c657366023830112156101c6578160040135610c2981612fda565b92610c376040519485612c9c565b8184526024602085019260051b820101913683116101c65760248201905b83821061119e5785856044358181116101c657610c76903690600401612cd8565b906064359081116101c657610c8f903690600401612cd8565b60043560005260036020526040600020916004830154610cb0811515613032565b421015611159576003830154341061111b5760043560005260066020526040600020336000526020526040600020546110d657600b845103611087576000926000805b8651811015610dc957610d0681886131d6565b51604051610d3160208281610d248183019687815193849201612dbb565b8101038084520182612c9c565b5190206040516020810190610d5360208281610d248b87815193849201612dbb565b51902014610dc0575b610d6681886131d6565b51604051610d8460208281610d248183019687815193849201612dbb565b5190206040516020810190610da660208281610d248c87815193849201612dbb565b51902014610db7575b600101610cf3565b60019150610daf565b60019550610d5c565b509094931561104c5715611007576040516020810190610df46020828551610d248187858a01612dbb565b5190206040516020810190610e146020828751610d248187858c01612dbb565b51902014610faf5760405192610e2984612c81565b3384526004356020850152604084015260608301526080820152600060a0820152600060c08201526004356000526004602052604060002090815491600160401b83101561049c5782610e84916001610e8a95018155612eee565b90613794565b6004356000526004602052604060002054600660205260406000203360005260205260406000205560078101610ec0815461312e565b90556003810154600a810291818304600a14821517156105115760008080938193610efe6006610ef460648a04809561361e565b920191825461314d565b905581546001600160a01b03165af1610f156131a6565b5015610f6a57600435600052600460205260406000205460001981019081116105115760405190815233907faca0adc08d5c94504856fb3b42c26640bd89ec72c1f2fe87d1458b7ac6b375a2602060043592a3005b60405162461bcd60e51b815260206004820152601960248201527f41646d696e20666565207472616e73666572206661696c6564000000000000006044820152606490fd5b60405162461bcd60e51b815260206004820152602a60248201527f4361707461696e20616e6420766963652d6361707461696e206d75737420626560448201526908191a5999995c995b9d60b21b6064820152608490fd5b60405162461bcd60e51b815260206004820152601860248201527f566963652d6361707461696e206e6f7420696e207465616d00000000000000006044820152606490fd5b60405162461bcd60e51b81526020600482015260136024820152724361707461696e206e6f7420696e207465616d60681b6044820152606490fd5b60405162461bcd60e51b815260206004820152602160248201527f5465616d206d75737420686176652065786163746c7920313120706c617965726044820152607360f81b6064820152608490fd5b60405162461bcd60e51b815260206004820152601860248201527f416c7265616479207375626d69747465642061207465616d00000000000000006044820152606490fd5b60405162461bcd60e51b8152602060048201526016602482015275496e73756666696369656e7420656e7472792066656560501b6044820152606490fd5b60405162461bcd60e51b815260206004820152601b60248201527f436f6e746573742068617320616c7265616479207374617274656400000000006044820152606490fd5b81358581116101c6576020916111bb839260243691880101612cd8565b815201910190610c55565b346101c65760003660031901126101c6576111df613a9a565b600080546001600160a01b0319811682556001600160a01b03167f8be0079c531659141344cd1fd0a4f28419497f9722a3daafe3b4186f6b6457e08280a3005b346101c65760403660031901126101c65760043560243560048110156101c65761127c9161124b613a9a565b8060005260036020526112676004604060002001541515613032565b60005260036020526008604060002001613116565b005b346101c65761128c36612ed8565b90600052600460205260406000209081548110156101c6576112ad91612eee565b5060018060a01b038154166001820154916040516112d2816102658160038601612f44565b6113236040516112e9816102658160048801612f44565b61131560066005860154950154936040519788978852602088015260c0604088015260c0870190612dde565b908582036060870152612dde565b91608084015260a08301520390f35b346101c65760403660031901126101c65760043561134e612e03565b906040519161135c83612c81565b60008352600060c0602094828682015260606040820152606080820152606060808201528260a08201520152816000526006835260406000209060018060a01b031660005282526040600020549081156113f4576000526004825260406000206000198201918211610511576113db916113d591612eee565b5061362b565b906113f0604051928284938452830190612e19565b0390f35b60405162461bcd60e51b815260048101849052602160248201527f5573657220686173206e6f7420656e7465726564207468697320636f6e7465736044820152601d60fa1b6064820152608490fd5b346101c6576020806003193601126101c657600435600052600590600581526040600020805461147281612fda565b936114806040519586612c9c565b81855260009283528383208486019391845b8484106115a957604080518881528951818a01819052600092600582901b83018101918a918c9085015b8287106114c95785850386f35b909192938280600192603f198982030185528751906114f2610220835190808452830190612dde565b91838101518483015260408101516040830152606080820151908301526080808201519083015260a0808201519083015260c0808201519083015260e081015160e0830152610100808201519083015261012080820151908301526101408082015190830152610160808201519083015261018080820151908301526101a080820151908301526101c080820151908301526101e080820151908301526102008091015191015296019201960195929190926114bc565b60118760019260409a999a516115be81612c65565b6040516115cf81610265818b612f44565b815284870154838201526002870154604082015260038701546060820152600487015460808201528587015460a0820152600687015460c0820152600787015460e082015260088701546101008201526009870154610120820152600a870154610140820152600b870154610160820152600c870154610180820152600d8701546101a0820152600e8701546101c0820152600f8701546101e08201526010870154610200820152815201930193019291969596611492565b346101c65760403660031901126101c6576001600160401b03602435116101c657602435360360406003198201126101c6576116c2613a9a565b60043560005260036020526040600020906116e260048301541515613032565b6116f660ff600884015460081c1615613077565b60018060a01b03600154169060405191637626423b60e11b8352604060048401526117276044840160018601612f44565b906003198483030160248501526024356004013560221984018112156101c65760243501926024600485013594016001600160401b0385116101c6578460051b9485360382136101c657604080865285018190526001600160fb1b03106101c6578490606085013760c2190160248035013512156101c65760608284018381038201602085015260046024803580820135019182013593830193909352918201356080909101526001600160401b03906117e3906044016134a8565b1660a084840101526001600160401b03611808606460243560248035013501016134a8565b1682840160c00152602480359081013501368190036062190160849091013512156101c65760c060e084840101526118bf602480359081013501608481013501846118ab6004830160446118a361187c8986606061012061186988806134bc565b939094010152610180888d0101916134ed565b61188960248801856134bc565b908b61014061011f19998a818401870301920101526134ed565b9401906134bc565b9187870184030161016088880101526134ed565b92602480359081013501368190036022190160a49091013512156101c657909101808303605f1901610100919091015260009183919082908490829061192a90602061191d60a46024803590810135019081013501600401806134bc565b91909281815201916134ed565b03925af1908115611d6057600091611fc9575b5060405190635cfa869760e11b8252602060048301528161199c611986611970845160a0602486015260c4850190612dde565b6020850151848203602319016044860152612dde565b6040840151838203602319016064850152612dde565b606083015190602319838203016084840152815180825260208201916020808360051b8301019401926000915b838310611f96578987600081806119f08b60808f01516023198483030160a485015261350e565b038173__$3db7b772cbf856ad84c0087fd7ee5880d8$__5af4908115611d6057600091611f73575b50906000915b6080810192835151811015611bf8576004356000526005602052611a4881604060002095516131d6565b51938054600160401b81101561049c57611a6791600182018155613009565b6104865784519485516001600160401b03811161049c57611a9281611a8c8554612f0a565b856130da565b602096601f8211600114611b855791611acd8261020093600198999a601096600092611b7a5750508160011b916000199060031b1c19161790565b84555b60208101518685015560408101516002850155606081015160038501556080810151600485015560a0810151600585015560c0810151600685015560e0810151600785015561010081015160088501556101208101516009850155610140810151600a850155610160810151600b850155610180810151600c8501556101a0810151600d8501556101c0810151600e8501556101e0810151600f8501550151910155019190611a1e565b015190508b80610a27565b968360005260206000209760005b601f1984168110611be0575082600197989960109593899361020096601f19811610611bc7575b505050811b018455611ad0565b015160001960f88460031b161c191690558a8080611bba565b818301518a5560019099019860209283019201611b93565b5090600435600052600460205260406000209160005b8354811015611d9c57611c4d906080830151611c2a8287612eee565b5090604051938491633971b87160e01b835260406004840152604483019061350e565b60031982820301602483015260e0810160018060a01b03845416825260018401546020830152600284019060e06040840152815480915261010083016101008260051b8501019260005260206000209160005b818110611d6c5750505050928160c06006611cdd611ccc88889760209a03606087015260038701612f44565b848103608086015260048601612f44565b93600581015460a08501520154910152038173__$3db7b772cbf856ad84c0087fd7ee5880d8$__5af48015611d6057600090611d2d575b600192506005611d248388612eee565b50015501611c0e565b506020823d602011611d58575b81611d4760209383612c9c565b810103126101c65760019151611d14565b3d9150611d3a565b6040513d6000823e3d90fd5b91936001809294969750611d8b60209260ff198a820301885288612f44565b960194019101918895949392611ca0565b8260043560005260046020526040600020908154906000905b82600019810111610511576000198301821015611eed5760005b611dd9838561361e565b600019810190811161051157811015611ee2576005611df88287612eee565b500154600182018211610511576005611e146001840188612eee565b50015411611e25575b600101611dcf565b611e326113d58287612eee565b90611e406001820187612eee565b50611e4b8288612eee565b939093610486578382611e6f9360019603611e76575b5050610e8484840189612eee565b9050611e1d565b858060a01b038154166001600160601b0360a01b8354161782558581015486830155611ea86002808301908401613ba3565b611eb86003820160038401613ac6565b611ec86004820160048401613ac6565b600581015460058301556006809101549101558880611e61565b509060010190611db5565b838360005b818110611f4f578361010261ffff196008830154161760088201557fbc9c1676dbbb8566f3bcb1dbd6c97d68c1464fad2c547d44e0b22875f6c916266040516020815280611f4a600435946001602084019101612f44565b0390a2005b6001810190818111610511576001916006611f6a8387612eee565b50015501611ef2565b611f9091503d806000833e611f888183612c9c565b81019061322f565b82611a18565b91939695509193602080611fb6600193601f198682030187528a51612dde565b98019301930190928795969492936119c9565b611fde91503d806000833e611f888183612c9c565b8261193d565b346101c65760203660031901126101c657600435600a548110156101c6576103bd604091612d4f565b346101c6576020806003193601126101c65760043561202a613a9a565b806000526003825260406000209061204760048301541515613032565b60ff600883015460081c161561224d5790816000526004835260406000206009845260406000209384549461207b86612fda565b926120896040519485612c9c565b86845261209587612fda565b8484019690601f199081013689376120c56120af8a612fda565b996120bd6040519b8c612c9c565b808b52612fda565b8986019101368237600660009701965b84548110156121af5783546120ea8287612d9f565b5054116121a7576120fb8185612eee565b508854600161210a8489612d9f565b500154908181029181830414901517156105115761271090049060018060a01b0390600080808086868654165af16121406131a6565b501561216a5754600193929116612157838b6131d6565b52612162828d6131d6565b525b016120d5565b60405162461bcd60e51b8152600481018a90526015602482015274141c9a5e99481d1c985b9cd9995c8819985a5b1959605a1b6044820152606490fd5b600190612164565b50859085898b604051946040860190604087525180915260608601929060005b818110612230575050508482038584015251808252908201929160005b82811061221c57867fdf1170406f09e2646fd7a4e7a758d06a57e00639018cf37c64e8aee2c741aeb387870388a2005b8351855293810193928101926001016121ec565b82516001600160a01b0316855293850193918501916001016121cf565b60405162461bcd60e51b815260048101849052601460248201527314d8dbdc995cc81b9bdd08199a5b985b1a5e995960621b6044820152606490fd5b346101c65760403660031901126101c657602460043581356001600160401b0381116101c6576122bd903690600401612d1f565b91906122c7613a9a565b81600052602091600383526122e56004604060002001541515613032565b8060005260038352600760406000200154612414576000805b8581106123fa5750612710612313911461315a565b8060005260099060098452604060002080549060008155816123ba575b505060005b85811061233e57005b8160005282855260406000209061235681888761313d565b918054600160401b8110156123a557612376906001928382018155612d9f565b919091612390578784600195358455013591015501612335565b89634e487b7160e01b60005260006004526000fd5b89634e487b7160e01b60005260416004526000fd5b6001906001600160ff1b038316830361051157600052856000209160011b8201915b8281106123e95750612330565b6000808255828201556002016123dc565b9061240d6001918661053a858a8961313d565b91016122fe565b60405162461bcd60e51b815260048101849052602760248201527f43616e6e6f74206368616e6765206166746572207061727469636970616e7473604482015266081a9bda5b995960ca1b6064820152608490fd5b346101c65760a03660031901126101c6576004356001600160401b0381116101c657612499903690600401612cd8565b6024356001600160401b0381116101c6576124b8903690600401612cd8565b906124c1613a9a565b600560405160208184516124d88183858901612dbb565b81016008815203019020541015612a20574260643511156129dc57606435608435111561298d57604051602081019061256060a082855161251d818760208a01612dbb565b8101875190612533826020830160208c01612dbb565b01604435602082015260643560408201526084356060820152426080820152036080810184520182612c9c565b51902091826000526003602052600460406000200154612948576040519061258782612c49565b83825282602083015260408201526044356060820152606435608082015260843560a0820152600060c0820152600060e08201526000610100820152600061012082015282600052600360205260406000208151815560208201518051906001600160401b03821161049c5761260d826126046001860154612f0a565b600186016130da565b602090601f83116001146128d65761263d9291600091836128cb5750508160011b916000199060031b1c19161790565b60018201555b60408201518051906001600160401b03821161049c576126738261266a6002860154612f0a565b600286016130da565b602090601f83116001146128585791806126a7926008959460009261284d5750508160011b916000199060031b1c19161790565b60028201555b606083015160038201556080830151600482015560a0830151600582015560c0830151600682015560e083015160078201550190610100810151906004821015610376576126fe6101209284613116565b0151151561ff0082549160081b169061ff001916179055604051602081835161272a8183858801612dbb565b8101600781520301902091825492600160401b938481101561049c5761275591600182018155612ff1565b81549060031b9083821b91600019901b1916179055604051602081845161277f8183858901612dbb565b81016008815203019020612793815461312e565b905560005b600a548110156127fe578160005260096020526040600020906127ba81612d4f565b509180548681101561049c576127d591600182018155612d9f565b610486578260019382036127ec575b505001612798565b805482558301549083015585806127e4565b50807f4e07bfa1c3b21d3be63af156de05b9ac1b7892062069bc522301b73b93b79b3161283b602094604051918291604083526040830190612dde565b604435878301520390a2604051908152f35b015190508880610a27565b906002840160005260206000209160005b601f19851681106128b3575091839160019360089695601f1981161061289a575b505050811b0160028201556126ad565b015160001960f88460031b161c1916905587808061288a565b91926020600181928685015181550194019201612869565b015190508780610a27565b9190600184016000526020600020906000935b601f198416851061292d576001945083601f19811610612914575b505050811b016001820155612643565b015160001960f88460031b161c19169055868080612904565b818101518355602094850194600190930192909101906128e9565b60405162461bcd60e51b815260206004820152601960248201527f436f6e7465737420494420616c726561647920657869737473000000000000006044820152606490fd5b60405162461bcd60e51b815260206004820152602160248201527f456e642074696d65206d7573742062652061667465722073746172742074696d6044820152606560f81b6064820152608490fd5b606460405162461bcd60e51b815260206004820152602060248201527f53746172742074696d65206d75737420626520696e20746865206675747572656044820152fd5b60405162461bcd60e51b815260206004820152601e60248201527f4d617820636f6e746573747320706572206d61746368207265616368656400006044820152606490fd5b600319602036820181136101c657612a7b613a9a565b60043560005260038152604060002091612a9a60048401541515613032565b600883015460ff81166004811015610376576002148015612c3c575b15612c0157928291612ad160ff612b049660081c1615613077565b60019060018060a01b03600154169160405196879463cdddf48360e01b8652604060048701526001604487019101612f44565b9184830301602485015260009160025491612b1e83612f0a565b928383528688600183169283600014612be157505050600114612b86575b505050828091039134905af18015611d6057612b5457005b81813d8311612b7f575b612b688183612c9c565b810103126101c6575163ffffffff8116036101c657005b503d612b5e565b92509060026000527f405787fa12a823e0f2b7631cc41b3ba8828b3321ca811111fa75cd3aa3bb5ace926000935b828510612bc957505050018301828088612b3c565b805484860189015288978a9750909401938101612bb4565b9196509392508594915060ff191683830152151560051b01019188612b3c565b60405162461bcd60e51b815260048101849052601360248201527213585d18da081b9bdd08195b991959081e595d606a1b6044820152606490fd5b5060058401544211612ab6565b61014081019081106001600160401b0382111761049c57604052565b61022081019081106001600160401b0382111761049c57604052565b60e081019081106001600160401b0382111761049c57604052565b90601f801991011681019081106001600160401b0382111761049c57604052565b6001600160401b03811161049c57601f01601f191660200190565b81601f820112156101c657803590612cef82612cbd565b92612cfd6040519485612c9c565b828452602083830101116101c657816000926020809301838601378301015290565b9181601f840112156101c6578235916001600160401b0383116101c6576020808501948460061b0101116101c657565b600a54811015612d8957600a60005260011b7fc65a7bb8d6351c1cf70c95a316cc6a92839c986682d98bc35f958f4883f9d2a80190600090565b634e487b7160e01b600052603260045260246000fd5b8054821015612d895760005260206000209060011b0190600090565b60005b838110612dce5750506000910152565b8181015183820152602001612dbe565b90602091612df781518092818552858086019101612dbb565b601f01601f1916010190565b602435906001600160a01b03821682036101c657565b9060e0810160018060a01b038351168252602080840151602084015260408401519160e060408501528251809152610100916020838601938360051b8701019401926000905b838210612eac57505050505060c0612e99612e87829360608701518682036060880152612dde565b60808601518582036080870152612dde565b9360a081015160a0850152015191015290565b90919293948380612ec960019360ff198b82030186528951612dde565b97019201920190939291612e5f565b60409060031901126101c6576004359060243590565b8054821015612d89576000526007602060002091020190600090565b90600182811c92168015612f3a575b6020831014612f2457565b634e487b7160e01b600052602260045260246000fd5b91607f1691612f19565b805460009392612f5382612f0a565b91828252602093600191600181169081600014612fbb5750600114612f7a575b5050505050565b90939495506000929192528360002092846000945b838610612fa757505050500101903880808080612f73565b805485870183015294019385908201612f8f565b60ff19168685015250505090151560051b010191503880808080612f73565b6001600160401b03811161049c5760051b60200190565b8054821015612d895760005260206000200190600090565b8054821015612d89576000526011602060002091020190600090565b9060048210156103765752565b1561303957565b60405162461bcd60e51b815260206004820152601660248201527510dbdb9d195cdd08191bd95cc81b9bdd08195e1a5cdd60521b6044820152606490fd5b1561307e57565b60405162461bcd60e51b815260206004820152601860248201527f53636f72657320616c72656164792066696e616c697a656400000000000000006044820152606490fd5b8181106130ce575050565b600081556001016130c3565b9190601f81116130e957505050565b613114926000526020600020906020601f840160051c83019310610b1d57601f0160051c01906130c3565b565b9060048110156103765760ff80198354169116179055565b60001981146105115760010190565b9190811015612d895760061b0190565b9190820180921161051157565b1561316157565b60405162461bcd60e51b815260206004820152601d60248201527f546f74616c2070657263656e74616765206d75737420626520313030250000006044820152606490fd5b3d156131d1573d906131b782612cbd565b916131c56040519384612c9c565b82523d6000602084013e565b606090565b8051821015612d895760209160051b010190565b81601f820112156101c657805161320081612cbd565b9261320e6040519485612c9c565b818452602082840101116101c65761322c9160208085019101612dbb565b90565b90602080838303126101c65782516001600160401b03938482116101c657019160a09060a0848203126101c65760409182519560a087018781108282111761049c57845285518181116101c657836132889188016131ea565b8752848601518181116101c657836132a19188016131ea565b85880152838601518181116101c657836132bc9188016131ea565b8488015260609160608701518281116101c657870184601f820112156101c65780516132e781612fda565b916132f488519384612c9c565b818352888084019260051b820101918783116101c657898201905b838210613483575050505060608901526080966080810151908382116101c657019484601f870112156101c65785519361334885612fda565b9861335583519a8b612c9c565b858a5288808b019660051b890101978789116101c657898101965b89881061338a575050505050505050505050608082015290565b87518781116101c65782016102209182601f19838d0301126101c65786516133b181612c65565b8d830151928a84116101c6578e946133ce8e8780978501016131ea565b83528982015185840152888201518a84015287820151898401528a8201518884015260c091828101518c85015260e09283820151908501526101009283820151908501526101209283820151908501526101409283820151908501526101609283820151908501526101809283820151908501526101a09283820151908501526101c09283820151908501526101e0928382015190850152610200928382015190850152015190820152815201970196613370565b81518781116101c6578b9161349d8b8480948801016131ea565b81520191019061330f565b35906001600160401b03821682036101c657565b9035601e19823603018112156101c65701602081359101916001600160401b0382116101c65781360383136101c657565b908060209392818452848401376000828201840152601f01601f1916010190565b908082519081815260208091019281808460051b8301019501936000915b84831061353c5750505050505090565b9091929394958480600192601f19858203018652895190613567610220835190808452830190612dde565b91838101518483015260408082015190830152606080820151908301526080808201519083015260a0808201519083015260c0808201519083015260e08082015190830152610100808201519083015261012080820151908301526101408082015190830152610160808201519083015261018080820151908301526101a080820151908301526101c080820151908301526101e0808201519083015261020080910151910152980193019301919493929061352c565b9190820391821161051157565b9060409182519061363b82612c81565b819360018060a01b0382541683526001808301549060209160208601526002840180549061366882612fda565b9361367586519586612c9c565b828552602085019160005260206000206000925b8484106136e157505050505050918160c09360069386015280516136b4816102658160038701612f44565b6060860152516136cb816102658160048601612f44565b6080850152600581015460a08501520154910152565b858381928a516136f5816102658189612f44565b815201920193019290613689565b600160401b821161049c5780549180825582811061372057505050565b60009182526020906020832093840193015b83811061373f5750505050565b808361374d60019354612f0a565b8061375b575b505001613732565b601f808211851461377257505081555b8338613753565b61378b90848452868420920160051c82018583016130c3565b8183555561376b565b91906104865760018060a01b038151166001600160601b0360a01b8354161782556001602090818301518185015560028401916040840151818151916137da8387613703565b01600094855282852085915b8383106139be5750505050600385019160608501519283516001600160401b03948582116139aa5761381c82611a8c8554612f0a565b8490601f831160011461394b5761384a92918891836138bf5750508160011b916000199060031b1c19161790565b90555b60048601936080860151918251948511613937576138758561386f8854612f0a565b886130da565b83601f86116001146138ca575050928060c095936138ab9360069896926138bf5750508160011b916000199060031b1c19161790565b90555b60a081015160058501550151910155565b015190503880610a27565b86835280832091959491939192601f198616915b828210613920575050916006979593918560c098969410613907575b505050811b0190556138ae565b015160001960f88460031b161c191690553880806138fa565b8088869782949787015181550196019401906138de565b634e487b7160e01b82526041600452602482fd5b8388528588208593929091601f1984168a5b89828210613994575050841161397b575b505050811b01905561384d565b015160001960f88460031b161c1916905538808061396e565b838501518655899790950194938401930161395d565b634e487b7160e01b87526041600452602487fd5b80519081516001600160401b038111613a86578791816139e3899361386f8854612f0a565b82948b601f8311600114613a23579185968192613a1494926138bf5750508160011b916000199060031b1c19161790565b85555b019201920191906137e6565b50868c52838c209095601f1983168d5b818110613a6f5750908697848895949310613a56575b505050811b018555613a17565b015160001960f88460031b161c19169055388080613a49565b8289015184558d978d979401939283019201613a33565b634e487b7160e01b89526041600452602489fd5b6000546001600160a01b03163303613aae57565b60405163118cdaa760e01b8152336004820152602490fd5b90808214613b9f57613ad88154612f0a565b906001600160401b03821161049c57613af582611a8c8554612f0a565b600090601f8311600114613b3457613b25929160009183613b295750508160011b916000199060031b1c19161790565b9055565b015490503880610a27565b815260208082208483528183209291601f1985169083905b828210613b86575050908460019594939210613b6d575b505050811b019055565b015460001960f88460031b161c19169055388080613b63565b8495819295850154815560018091019601940190613b4c565b5050565b818114613b9f57815491613bb78383613703565b6000526020600020906000526020600020906000905b838210613bda5750505050565b80613be760019285613ac6565b928101929181019101613bcd56fea26469706673582212205007a50c6b747cdc83f9a88db41e77dff03d4abd3067e124d20bb27517ba0b4064736f6c6343000819003360808060405234601557612019908161001b8239f35b600080fdfe6080604052600436101561001257600080fd5b6000803560e01c8063cdddf48314610a63578063ce0fdaa3146109ff5763ec4c84761461003e57600080fd5b346109fc576003196040368201126109f4576004356001600160401b0381116109f85761006f903690600401611e7c565b906001600160401b03602435116109f857604090602435360301126109f4576060608060405161009e81611db3565b8281528260208201528260408201528280820152015260405163d0f18f8560e01b8152602060048201526024356004013560221960243536030181121561096d57602435016001600160401b0360048201351161096d57600481013560051b3603602482011361096d57604060248301526004810135606483018190526001600160fb1b031061096d578060048092013560051b602482016084850137013560051b8101906024803501359160c219602435360301831215610969576024358301606083830301604484015260048101356084830152602481013560a48301526001600160401b0361019260448301611f05565b1660c48301526001600160401b036101ac60648301611f05565b1660e48301523681900390608481013560621983018112156109f0578161023e91016004810160c061010487015261022e6101fd6101ea8380611f19565b60606101448b01526101a48a0191611f4a565b9160446102266102106024870184611f19565b610143198c880381016101648e01529691611f4a565b940190611f19565b9187840301610184880152611f4a565b9260a482013592602219018312156109f0576020938461027861028593600489979688970101906101246083198287030191015280611f19565b9190928181520191611f4a565b03817307ad8508c9173dc845817472ca0484035abfa3c85afa9081156109e55784916109aa575b5015610971576024350160a4810135906022198136030182121561096d57016004810135906022198136030182121561096d57016004810135906001600160401b03821161096d57602401813603811361096d5761030b913691611e40565b908151820160208382031261096d576020830151906001600160401b0382116109695760a0828501820312610969576040519361034785611db3565b602083820101516001600160401b03811161092c57610370906020808501918685010101611f6b565b8552604083820101516001600160401b03811161092c5761039b906020808501918685010101611f6b565b6020860152606083820101516001600160401b03811161092c576103c9906020808501918685010101611f6b565b6040860152608083820101516001600160401b03811161092c5760208301603f828685010101121561092c576020818584010101519061040882611fad565b916104166040519384611e04565b80835260208301916020860160408360051b838a890101010111610928576040818887010101925b60408360051b838a890101010184106109305750505050606086015260a08382010151926001600160401b03841161092c5760208301603f858385010101121561092c576020848284010101519161049583611fad565b946104a36040519687611e04565b83865260208601926020860160408660051b8484870101010111610928576040828285010101935b60408660051b848487010101018510610794578a8a8a8a60808301528151604051610513602082816105068183019687815193849201611e9a565b8101038084520182611e04565b519020604051602081019061053360208286516105068187858b01611e9a565b5190200361075b577f370e7ade9bec795fec13333b0a8ecc7c0efa070361f5d3a01276a0dfd564834c6105758492604051918291604083526040830190611ebd565b600160208301520390a1604051918291602083526105d16105bb6105a5845160a0602088015260c0870190611ebd565b6020850151868203601f19016040880152611ebd565b6040840151858203601f19016060870152611ebd565b91606081015192601f19858203016080860152835180825260208201916020808360051b83010196019285915b8383106107265750505050506080015191601f198482030160a0850152825190818152602081016020808460051b840101950193915b8383106106415786860387f35b919395509193602080600192601f1985820301865288519061066d610220835190808452830190611ebd565b91838101518483015260408101516040830152606081015160608301526080810151608083015260a081015160a083015260c081015160c083015260e081015160e0830152610100808201519083015261012080820151908301526101408082015190830152610160808201519083015261018080820151908301526101a080820151908301526101c080820151908301526101e080820151908301526102008091015191015297019301930190928695949293610634565b9193975091939495602080610747600193601f198682030187528b51611ebd565b9901930193019092889796959492936105fe565b60405162461bcd60e51b815260206004820152601160248201527009ac2e8c6d040928840dad2e6dac2e8c6d607b1b6044820152606490fd5b84516001600160401b03811161092457610220858401850182018903601f1901126109245760405191826102208101106001600160401b036102208501111761090e5761022083016040526040828686890101010151906001600160401b03821161090a57604093856102408560e06020978f858e6108238f939b8e8e809e0191878787870101010101611f6b565b8952010101606081810151898801526080808301519b88019b909b5260a0808301519188019190915260c0808301519b88019b909b5291015190850152918a01890182016101009081015197840197909752878a0189019091016101208181015160e08501526101408083015198850198909852610160808301519185019190915261018080830151988501989098526101a080830151918501919091526101c080830151988501989098526101e08083015191850191909152610200808301519885019890985261022082015190840152015194810194909452928352950194016104cb565b8d80fd5b634e487b7160e01b600052604160045260246000fd5b8b80fd5b8980fd5b8680fd5b8351906001600160401b038211610924576020809161095c8960408096888f8f88019401010101611f6b565b815201940193905061043e565b8480fd5b8380fd5b60405162461bcd60e51b815260206004820152601160248201527024b73b30b634b21023222190383937b7b360791b6044820152606490fd5b90506020813d6020116109dd575b816109c560209383611e04565b8101031261096d5751801515810361096d57386102ac565b3d91506109b8565b6040513d86823e3d90fd5b8780fd5b5080fd5b8280fd5b80fd5b50346109fc5760203660031901126109fc576004356001600160401b0381116109f457610a5060208093610a3c63ffffffff943690600401611e7c565b908260405194838680955193849201611e9a565b8201908152030190205416604051908152f35b5060403660031901126109fc576004356001600160401b0381116109f457610a8f903690600401611e7c565b6024356001600160401b0381116109f857610aae903690600401611e7c565b9060405191606083018381106001600160401b03821117611d8857604052602a92602a81527f68747470733a2f2f6170692e637269636170692e636f6d2f76312f6d6174636860208201526917dcd8dbdc9958d85c9960b21b6040820152604051938491865b828110611d9c5750505080610b7b92673f6170696b65793d60c01b604a6056940152610b4a815180926020605286019101611e9a565b8101632669643d60e01b6052820152845190610b6c8285830160208901611e9a565b01036036810185520183611e04565b6040519161048083018381106001600160401b03821117611d885760405261045983527f7b226d617463684964223a202e646174612e69642c20226d617463684e616d6560208401527f223a202e646174612e6e616d652c20226d61746368537461747573223a202e6460408401527f6174612e7374617475732c20227465616d73223a202e646174612e7465616d7360608401527f2c2022706c61796572506572666f726d616e636573223a205b282e646174612e60808401527f73636f7265636172645b305d2e62617474696e675b5d207c207b22706c61796560a08401527f724964223a202e626174736d616e2e69642c20226e616d65223a202e6261747360c08401527f6d616e2e6e616d652c202272756e73223a202e722c202262616c6c73223a202e60e08401527f622c2022666f757273223a202e223473222c20227369786573223a202e2236736101008401527f222c2022737472696b6552617465223a202e73727d292c20282e646174612e736101208401527f636f7265636172645b305d2e626f776c696e675b5d207c207b22706c617965726101408401527f4964223a202e626f776c65722e69642c20226e616d65223a202e626f776c65726101608401527f2e6e616d652c20226f76657273223a202e6f2c20226d616964656e73223a202e6101808401527f6d2c20227769636b657473223a202e772c202272756e73436f6e6365646564226101a08401527f3a202e722c202265636f6e6f6d79223a202e65636f2c20227769646573223a206101c08401527f2e77642c20226e6f42616c6c73223a202e6e627d292c20282e646174612e73636101e08401527f6f7265636172645b315d2e62617474696e675b5d207c207b22706c61796572496102008401527f64223a202e626174736d616e2e69642c20226e616d65223a202e626174736d616102208401527f6e2e6e616d652c202272756e73223a202e722c202262616c6c73223a202e622c6102408401527f2022666f757273223a202e223473222c20227369786573223a202e223673222c6102608401527f2022737472696b6552617465223a202e73727d292c20282e646174612e73636f6102808401527f7265636172645b315d2e626f776c696e675b5d207c207b22706c6179657249646102a08401527f223a202e626f776c65722e69642c20226e616d65223a202e626f776c65722e6e6102c08401527f616d652c20226f76657273223a202e6f2c20226d616964656e73223a202e6d2c6102e08401527f20227769636b657473223a202e772c202272756e73436f6e6365646564223a206103008401527f2e722c202265636f6e6f6d79223a202e65636f2c20227769646573223a202e776103208401527f642c20226e6f42616c6c73223a202e6e627d292c20282e646174612e73636f726103408401527f65636172645b305d2e6361746368696e675b5d207c207b22706c6179657249646103608401527f223a202e636174636865722e69642c20226e616d65223a202e636174636865726103808401527f2e6e616d652c202263617463686573223a202e63617463682c202272756e6f756103a08401527f7473223a202e72756e6f75742c20227374756d70696e6773223a202e7374756d6103c08401527f7065647d292c20282e646174612e73636f7265636172645b315d2e63617463686103e08401527f696e675b5d207c207b22706c617965724964223a202e636174636865722e69646104008401527f2c20226e616d65223a202e636174636865722e6e616d652c20226361746368656104208401527f73223a202e63617463682c202272756e6f757473223a202e72756e6f75742c206104408401527f227374756d70696e6773223a202e7374756d7065647d295d7d00000000000000610460840152604051806106808101106001600160401b0361068083011117611d885761190191816106806055930160405261065681527f7b22636f6d706f6e656e7473223a205b7b22696e7465726e616c54797065223a60208201527f2022737472696e67222c20226e616d65223a20226d617463684964222c20227460408201527f797065223a2022737472696e67227d2c7b22696e7465726e616c54797065223a60608201527f2022737472696e67222c20226e616d65223a20226d617463684e616d65222c2060808201527f2274797065223a2022737472696e67227d2c7b22696e7465726e616c5479706560a08201527f223a2022737472696e67222c20226e616d65223a20226d61746368537461747560c08201527f73222c202274797065223a2022737472696e67227d2c7b22696e7465726e616c60e08201527f54797065223a2022737472696e675b5d222c20226e616d65223a20227465616d6101008201527f73222c202274797065223a2022737472696e675b5d227d2c7b22636f6d706f6e6101208201527f656e7473223a205b7b22696e7465726e616c54797065223a2022737472696e676101408201527f222c20226e616d65223a2022706c617965724964222c202274797065223a20226101608201527f737472696e67227d2c7b22696e7465726e616c54797065223a2022737472696e6101808201527f67222c20226e616d65223a20226e616d65222c202274797065223a20227374726101a08201527f696e67227d2c7b22696e7465726e616c54797065223a202275696e74323536226101c08201527f2c20226e616d65223a202272756e73222c202274797065223a202275696e74326101e08201527f3536227d2c7b22696e7465726e616c54797065223a202275696e74323536222c806102008301527f20226e616d65223a202262616c6c73222c202274797065223a202275696e7432610220830152806102408301527f20226e616d65223a2022666f757273222c202274797065223a202275696e7432610260830152806102808301527f20226e616d65223a20227369786573222c202274797065223a202275696e74326102a08301526102c08201527f20226e616d65223a2022737472696b6552617465222c202274797065223a20226102e08201527f75696e74323536227d2c7b22696e7465726e616c54797065223a202275696e74806103008301527f323536222c20226e616d65223a20226f76657273222c202274797065223a20226103208301526103408201527f323536222c20226e616d65223a20226d616964656e73222c202274797065223a6103608201527f202275696e74323536227d2c7b22696e7465726e616c54797065223a202275696103808201527f6e74323536222c20226e616d65223a20227769636b657473222c2022747970656103a08201527f223a202275696e74323536227d2c7b22696e7465726e616c54797065223a20226103c08201527f75696e74323536222c20226e616d65223a202272756e73436f6e6365646564226103e08201527f2c202274797065223a202275696e74323536227d2c7b22696e7465726e616c546104008201527f797065223a202275696e74323536222c20226e616d65223a202265636f6e6f6d6104208201527f79222c202274797065223a202275696e74323536227d2c7b22696e7465726e616104408201527f6c54797065223a202275696e74323536222c20226e616d65223a2022776964656104608201527f73222c202274797065223a202275696e74323536227d2c7b22696e7465726e616104808201527f6c54797065223a202275696e74323536222c20226e616d65223a20226e6f42616104a08201527f6c6c73222c202274797065223a202275696e74323536227d2c7b22696e7465726104c08201527f6e616c54797065223a202275696e74323536222c20226e616d65223a202263616104e08201527f7463686573222c202274797065223a202275696e74323536227d2c7b22696e746105008201527f65726e616c54797065223a202275696e74323536222c20226e616d65223a20226105208201527f72756e6f757473222c202274797065223a202275696e74323536227d2c7b22696105408201527f6e7465726e616c54797065223a202275696e74323536222c20226e616d65223a6105608201527f20227374756d70696e6773222c202274797065223a202275696e74323536227d6105808201527f2c7b22696e7465726e616c54797065223a202275696e74323536222c20226e616105a08201527f6d65223a202266616e74617379506f696e7473222c202274797065223a2022756105c08201527f696e74323536227d5d2c2022696e7465726e616c54797065223a2022737472756105e08201527f637420506c61796572506572666f726d616e63655b5d222c20226e616d65223a6106008201527f2022706c61796572506572666f726d616e636573222c202274797065223a20226106208201527f7475706c655b5d227d5d2c20226e616d65223a20224d6174636853636f72656361064082015275617264222c202274797065223a20227475706c65227d60501b610660820152604051958692683d913ab936111d101160b91b6020850152611880815180926020602988019101611e9a565b830174111610113837b9ba383937b1b2b9b9a538911d101160591b60298201526118b4825180936020603e85019101611e9a565b01741116101130b134afb9b4b3b730ba3ab932911d101160591b603e8201526118e7825180936020605385019101611e9a565b0161227d60f01b6053820152036035810185520183611e04565b61198361192c60405161191381611dce565b60078152664a736f6e41706960c81b6020820152611ee2565b61197561195460405161193e81611dce565b60048152632ba2a11960e11b6020820152611ee2565b94604051958693602085015260408401526060808401526080830190611ebd565b03601f198101845283611e04565b604051602081019060208252601b60408201527f46646352657175657374466565436f6e66696775726174696f6e7300000000006060820152606081526119c981611de9565b51902060405190630ac9aa5160e11b90818352600483015273ad67fe66660fb8dfe9d6b1b4240d8650e30f601991602081602481865afa908115611caa578691611d69575b50604051630507923b60e11b81526020600482018190526001600160a01b039691928390818981611a426024820188611ebd565b0392165afa918215611d5e578792611d2a575b50813410611cd45786906040516020810190602082526006604082015265233231a43ab160d11b606082015260608152611a8e81611de9565b519020604051908582526004820152602081602481895afa8015611c425788918491611cb5575b5016803b156109f857611ae69160405194858094819363188e3cd560e21b8352602060048401526024830190611ebd565b03925af18015611caa57611c7a575b506020906024604051838101908482526013604082015272233630b932a9bcb9ba32b6b9a6b0b730b3b2b960691b606082015260608152611b3581611de9565b519020916040519485938492835260048301525afa80156109e5576020918591611c4d575b50600460405180958193634134520b60e01b8352165afa918215611c42578392611bff575b50611bef7f2097417e917c4f7ffa2bdd359b5795706a6452c2a769292a59bfa23d109c9ca99163ffffffff6020958660405180928551611bc28184868a01611e9a565b8201908152030190209416938463ffffffff19825416179055604051918291604083526040830190611ebd565b84868301520390a1604051908152f35b9091506020813d602011611c3a575b81611c1b60209383611e04565b810103126109f8575163ffffffff811681036109f85790611bef611b7f565b3d9150611c0e565b6040513d85823e3d90fd5b611c6d9150823d8411611c73575b611c658183611e04565b810190611fc4565b38611b5a565b503d611c5b565b6001600160401b038196929611611c9657604052936020611af5565b634e487b7160e01b82526041600452602482fd5b6040513d88823e3d90fd5b611cce915060203d602011611c7357611c658183611e04565b38611ab5565b60405162461bcd60e51b815260206004820152602860248201527f496e73756666696369656e742066656520666f72206174746573746174696f6e604482015267081c995c5d595cdd60c21b6064820152608490fd5b9091506020813d602011611d56575b81611d4660209383611e04565b8101031261092c57519038611a55565b3d9150611d39565b6040513d89823e3d90fd5b611d82915060203d602011611c7357611c658183611e04565b38611a0e565b634e487b7160e01b85526041600452602485fd5b602082820181015188830182015287945001610b14565b60a081019081106001600160401b0382111761090e57604052565b604081019081106001600160401b0382111761090e57604052565b608081019081106001600160401b0382111761090e57604052565b90601f801991011681019081106001600160401b0382111761090e57604052565b6001600160401b03811161090e57601f01601f191660200190565b929192611e4c82611e25565b91611e5a6040519384611e04565b829481845281830111611e77578281602093846000960137010152565b600080fd5b9080601f83011215611e7757816020611e9793359101611e40565b90565b60005b838110611ead5750506000910152565b8181015183820152602001611e9d565b90602091611ed681518092818552858086019101611e9a565b601f01601f1916010190565b602081519101519060208110611ef6575090565b6000199060200360031b1b1690565b35906001600160401b0382168203611e7757565b9035601e1982360301811215611e775701602081359101916001600160401b038211611e77578136038313611e7757565b908060209392818452848401376000828201840152601f01601f1916010190565b81601f82011215611e77578051611f8181611e25565b92611f8f6040519485611e04565b81845260208284010111611e7757611e979160208085019101611e9a565b6001600160401b03811161090e5760051b60200190565b90816020910312611e7757516001600160a01b0381168103611e77579056fea264697066735822122055d79ff0e56d748ececc070f495d98c7d7f306f45c250d83540eb042200a9e7064736f6c63430008190033","linkReferences":{"src/ScoringEngine.sol":{"ScoringEngine":[{"start":7562,"length":20},{"start":8327,"length":20}]}}},"methodIdentifiers":{"contestPlayerPerformances(bytes32,uint256)":"ba53fd8d","contestPrizeBreakdowns(bytes32,uint256)":"ee413bea","contestTeams(bytes32,uint256)":"68432bfe","contests(bytes32)":"ea269c84","createContest(string,string,uint256,uint256,uint256)":"10dd371c","defaultPrizeBreakdown(uint256)":"447ab022","distributePrizes(bytes32)":"2ecacb2e","fdcDataConsumer()":"8a465516","finalizeScores(bytes32,(bytes32[],(bytes32,bytes32,uint64,uint64,(string,string,string),(bytes))))":"5bb0d0db","getAllContestTeams(bytes32)":"a7ce04fb","getContest(bytes32)":"f22d36a2","getMatchContests(string)":"a0505c35","getPlayerPerformances(bytes32)":"64877505","getUserTeam(bytes32,address)":"6753c589","matchContestCount(string)":"be01e9b7","matchContests(string,uint256)":"87e7d22a","owner()":"8da5cb5b","renounceOwnership()":"715018a6","requestMatchData(bytes32)":"051f6f84","setContestPrizeBreakdown(bytes32,(uint256,uint256)[])":"24d07651","setDefaultPrizeBreakdown((uint256,uint256)[])":"eaa150d3","submitTeam(bytes32,string[],string,string)":"85fb8ab9","transferOwnership(address)":"f2fde38b","updateContestStatus(bytes32,uint8)":"6e5e3f5e","updateCricketApiKey(string)":"8facd93f","userContestEntries(bytes32,address)":"a1e516fd"},"id":109}