{
  "abi": [
    {
      "type": "constructor",
      "inputs": [
        {
          "name": "_cricketApiKey",
          "type": "string",
          "internalType": "string"
        }
      ],
      "stateMutability": "nonpayable"
    },
    {
      "type": "function",
      "name": "contestPlayerPerformances",
      "inputs": [
        {
          "name": "",
          "type": "bytes32",
          "internalType": "bytes32"
        },
        {
          "name": "",
          "type": "uint256",
          "internalType": "uint256"
        }
      ],
      "outputs": [
        {
          "name": "playerId",
          "type": "string",
          "internalType": "string"
        },
        {
          "name": "runs",
          "type": "uint256",
          "internalType": "uint256"
        },
        {
          "name": "balls",
          "type": "uint256",
          "internalType": "uint256"
        },
        {
          "name": "fours",
          "type": "uint256",
          "internalType": "uint256"
        },
        {
          "name": "sixes",
          "type": "uint256",
          "internalType": "uint256"
        },
        {
          "name": "strikeRate",
          "type": "uint256",
          "internalType": "uint256"
        },
        {
          "name": "overs",
          "type": "uint256",
          "internalType": "uint256"
        },
        {
          "name": "maidens",
          "type": "uint256",
          "internalType": "uint256"
        },
        {
          "name": "wickets",
          "type": "uint256",
          "internalType": "uint256"
        },
        {
          "name": "runsConceded",
          "type": "uint256",
          "internalType": "uint256"
        },
        {
          "name": "economy",
          "type": "uint256",
          "internalType": "uint256"
        },
        {
          "name": "wides",
          "type": "uint256",
          "internalType": "uint256"
        },
        {
          "name": "noBalls",
          "type": "uint256",
          "internalType": "uint256"
        },
        {
          "name": "catches",
          "type": "uint256",
          "internalType": "uint256"
        },
        {
          "name": "runouts",
          "type": "uint256",
          "internalType": "uint256"
        },
        {
          "name": "stumpings",
          "type": "uint256",
          "internalType": "uint256"
        },
        {
          "name": "fantasyPoints",
          "type": "uint256",
          "internalType": "uint256"
        }
      ],
      "stateMutability": "view"
    },
    {
      "type": "function",
      "name": "contestPrizeBreakdowns",
      "inputs": [
        {
          "name": "",
          "type": "bytes32",
          "internalType": "bytes32"
        },
        {
          "name": "",
          "type": "uint256",
          "internalType": "uint256"
        }
      ],
      "outputs": [
        {
          "name": "rank",
          "type": "uint256",
          "internalType": "uint256"
        },
        {
          "name": "percentage",
          "type": "uint256",
          "internalType": "uint256"
        }
      ],
      "stateMutability": "view"
    },
    {
      "type": "function",
      "name": "contestTeams",
      "inputs": [
        {
          "name": "",
          "type": "bytes32",
          "internalType": "bytes32"
        },
        {
          "name": "",
          "type": "uint256",
          "internalType": "uint256"
        }
      ],
      "outputs": [
        {
          "name": "userAddress",
          "type": "address",
          "internalType": "address"
        },
        {
          "name": "contestId",
          "type": "bytes32",
          "internalType": "bytes32"
        },
        {
          "name": "captainId",
          "type": "string",
          "internalType": "string"
        },
        {
          "name": "viceCaptainId",
          "type": "string",
          "internalType": "string"
        },
        {
          "name": "totalPoints",
          "type": "uint256",
          "internalType": "uint256"
        },
        {
          "name": "rank",
          "type": "uint256",
          "internalType": "uint256"
        }
      ],
      "stateMutability": "view"
    },
    {
      "type": "function",
      "name": "contests",
      "inputs": [
        {
          "name": "",
          "type": "bytes32",
          "internalType": "bytes32"
        }
      ],
      "outputs": [
        {
          "name": "contestId",
          "type": "bytes32",
          "internalType": "bytes32"
        },
        {
          "name": "matchId",
          "type": "string",
          "internalType": "string"
        },
        {
          "name": "ipfsHash",
          "type": "string",
          "internalType": "string"
        },
        {
          "name": "entryFee",
          "type": "uint256",
          "internalType": "uint256"
        },
        {
          "name": "startTime",
          "type": "uint256",
          "internalType": "uint256"
        },
        {
          "name": "endTime",
          "type": "uint256",
          "internalType": "uint256"
        },
        {
          "name": "prizePool",
          "type": "uint256",
          "internalType": "uint256"
        },
        {
          "name": "participantCount",
          "type": "uint256",
          "internalType": "uint256"
        },
        {
          "name": "status",
          "type": "uint8",
          "internalType": "enum ContestData.MatchStatus"
        },
        {
          "name": "scoresFinalized",
          "type": "bool",
          "internalType": "bool"
        }
      ],
      "stateMutability": "view"
    },
    {
      "type": "function",
      "name": "createContest",
      "inputs": [
        {
          "name": "matchId",
          "type": "string",
          "internalType": "string"
        },
        {
          "name": "ipfsHash",
          "type": "string",
          "internalType": "string"
        },
        {
          "name": "entryFee",
          "type": "uint256",
          "internalType": "uint256"
        },
        {
          "name": "startTime",
          "type": "uint256",
          "internalType": "uint256"
        },
        {
          "name": "endTime",
          "type": "uint256",
          "internalType": "uint256"
        }
      ],
      "outputs": [
        {
          "name": "",
          "type": "bytes32",
          "internalType": "bytes32"
        }
      ],
      "stateMutability": "nonpayable"
    },
    {
      "type": "function",
      "name": "defaultPrizeBreakdown",
      "inputs": [
        {
          "name": "",
          "type": "uint256",
          "internalType": "uint256"
        }
      ],
      "outputs": [
        {
          "name": "rank",
          "type": "uint256",
          "internalType": "uint256"
        },
        {
          "name": "percentage",
          "type": "uint256",
          "internalType": "uint256"
        }
      ],
      "stateMutability": "view"
    },
    {
      "type": "function",
      "name": "distributePrizes",
      "inputs": [
        {
          "name": "contestId",
          "type": "bytes32",
          "internalType": "bytes32"
        }
      ],
      "outputs": [],
      "stateMutability": "nonpayable"
    },
    {
      "type": "function",
      "name": "fdcDataConsumer",
      "inputs": [],
      "outputs": [
        {
          "name": "",
          "type": "address",
          "internalType": "contract FDCDataConsumer"
        }
      ],
      "stateMutability": "view"
    },
    {
      "type": "function",
      "name": "finalizeScores",
      "inputs": [
        {
          "name": "contestId",
          "type": "bytes32",
          "internalType": "bytes32"
        },
        {
          "name": "proof",
          "type": "tuple",
          "internalType": "struct IJsonApi.Proof",
          "components": [
            {
              "name": "merkleProof",
              "type": "bytes32[]",
              "internalType": "bytes32[]"
            },
            {
              "name": "data",
              "type": "tuple",
              "internalType": "struct IJsonApi.Response",
              "components": [
                {
                  "name": "attestationType",
                  "type": "bytes32",
                  "internalType": "bytes32"
                },
                {
                  "name": "sourceId",
                  "type": "bytes32",
                  "internalType": "bytes32"
                },
                {
                  "name": "votingRound",
                  "type": "uint64",
                  "internalType": "uint64"
                },
                {
                  "name": "lowestUsedTimestamp",
                  "type": "uint64",
                  "internalType": "uint64"
                },
                {
                  "name": "requestBody",
                  "type": "tuple",
                  "internalType": "struct IJsonApi.RequestBody",
                  "components": [
                    {
                      "name": "url",
                      "type": "string",
                      "internalType": "string"
                    },
                    {
                      "name": "postprocessJq",
                      "type": "string",
                      "internalType": "string"
                    },
                    {
                      "name": "abi_signature",
                      "type": "string",
                      "internalType": "string"
                    }
                  ]
                },
                {
                  "name": "responseBody",
                  "type": "tuple",
                  "internalType": "struct IJsonApi.ResponseBody",
                  "components": [
                    {
                      "name": "abi_encoded_data",
                      "type": "bytes",
                      "internalType": "bytes"
                    }
                  ]
                }
              ]
            }
          ]
        }
      ],
      "outputs": [],
      "stateMutability": "nonpayable"
    },
    {
      "type": "function",
      "name": "getAllContestTeams",
      "inputs": [
        {
          "name": "contestId",
          "type": "bytes32",
          "internalType": "bytes32"
        }
      ],
      "outputs": [
        {
          "name": "",
          "type": "tuple[]",
          "internalType": "struct ContestData.UserTeam[]",
          "components": [
            {
              "name": "userAddress",
              "type": "address",
              "internalType": "address"
            },
            {
              "name": "contestId",
              "type": "bytes32",
              "internalType": "bytes32"
            },
            {
              "name": "playerIds",
              "type": "string[]",
              "internalType": "string[]"
            },
            {
              "name": "captainId",
              "type": "string",
              "internalType": "string"
            },
            {
              "name": "viceCaptainId",
              "type": "string",
              "internalType": "string"
            },
            {
              "name": "totalPoints",
              "type": "uint256",
              "internalType": "uint256"
            },
            {
              "name": "rank",
              "type": "uint256",
              "internalType": "uint256"
            }
          ]
        }
      ],
      "stateMutability": "view"
    },
    {
      "type": "function",
      "name": "getAllContests",
      "inputs": [],
      "outputs": [
        {
          "name": "",
          "type": "bytes32[]",
          "internalType": "bytes32[]"
        }
      ],
      "stateMutability": "view"
    },
    {
      "type": "function",
      "name": "getAllContestsForMatch",
      "inputs": [
        {
          "name": "matchId",
          "type": "string",
          "internalType": "string"
        }
      ],
      "outputs": [
        {
          "name": "",
          "type": "bytes32[]",
          "internalType": "bytes32[]"
        }
      ],
      "stateMutability": "view"
    },
    {
      "type": "function",
      "name": "getContest",
      "inputs": [
        {
          "name": "contestId",
          "type": "bytes32",
          "internalType": "bytes32"
        }
      ],
      "outputs": [
        {
          "name": "",
          "type": "tuple",
          "internalType": "struct ContestData.Contest",
          "components": [
            {
              "name": "contestId",
              "type": "bytes32",
              "internalType": "bytes32"
            },
            {
              "name": "matchId",
              "type": "string",
              "internalType": "string"
            },
            {
              "name": "ipfsHash",
              "type": "string",
              "internalType": "string"
            },
            {
              "name": "entryFee",
              "type": "uint256",
              "internalType": "uint256"
            },
            {
              "name": "startTime",
              "type": "uint256",
              "internalType": "uint256"
            },
            {
              "name": "endTime",
              "type": "uint256",
              "internalType": "uint256"
            },
            {
              "name": "prizePool",
              "type": "uint256",
              "internalType": "uint256"
            },
            {
              "name": "participantCount",
              "type": "uint256",
              "internalType": "uint256"
            },
            {
              "name": "status",
              "type": "uint8",
              "internalType": "enum ContestData.MatchStatus"
            },
            {
              "name": "scoresFinalized",
              "type": "bool",
              "internalType": "bool"
            }
          ]
        }
      ],
      "stateMutability": "view"
    },
    {
      "type": "function",
      "name": "getContestCount",
      "inputs": [],
      "outputs": [
        {
          "name": "",
          "type": "uint256",
          "internalType": "uint256"
        }
      ],
      "stateMutability": "view"
    },
    {
      "type": "function",
      "name": "getMatchContests",
      "inputs": [
        {
          "name": "matchId",
          "type": "string",
          "internalType": "string"
        }
      ],
      "outputs": [
        {
          "name": "",
          "type": "bytes32[]",
          "internalType": "bytes32[]"
        }
      ],
      "stateMutability": "view"
    },
    {
      "type": "function",
      "name": "getPlayerPerformances",
      "inputs": [
        {
          "name": "contestId",
          "type": "bytes32",
          "internalType": "bytes32"
        }
      ],
      "outputs": [
        {
          "name": "",
          "type": "tuple[]",
          "internalType": "struct ContestData.PlayerPerformance[]",
          "components": [
            {
              "name": "playerId",
              "type": "string",
              "internalType": "string"
            },
            {
              "name": "runs",
              "type": "uint256",
              "internalType": "uint256"
            },
            {
              "name": "balls",
              "type": "uint256",
              "internalType": "uint256"
            },
            {
              "name": "fours",
              "type": "uint256",
              "internalType": "uint256"
            },
            {
              "name": "sixes",
              "type": "uint256",
              "internalType": "uint256"
            },
            {
              "name": "strikeRate",
              "type": "uint256",
              "internalType": "uint256"
            },
            {
              "name": "overs",
              "type": "uint256",
              "internalType": "uint256"
            },
            {
              "name": "maidens",
              "type": "uint256",
              "internalType": "uint256"
            },
            {
              "name": "wickets",
              "type": "uint256",
              "internalType": "uint256"
            },
            {
              "name": "runsConceded",
              "type": "uint256",
              "internalType": "uint256"
            },
            {
              "name": "economy",
              "type": "uint256",
              "internalType": "uint256"
            },
            {
              "name": "wides",
              "type": "uint256",
              "internalType": "uint256"
            },
            {
              "name": "noBalls",
              "type": "uint256",
              "internalType": "uint256"
            },
            {
              "name": "catches",
              "type": "uint256",
              "internalType": "uint256"
            },
            {
              "name": "runouts",
              "type": "uint256",
              "internalType": "uint256"
            },
            {
              "name": "stumpings",
              "type": "uint256",
              "internalType": "uint256"
            },
            {
              "name": "fantasyPoints",
              "type": "uint256",
              "internalType": "uint256"
            }
          ]
        }
      ],
      "stateMutability": "view"
    },
    {
      "type": "function",
      "name": "getUserTeam",
      "inputs": [
        {
          "name": "contestId",
          "type": "bytes32",
          "internalType": "bytes32"
        },
        {
          "name": "userAddress",
          "type": "address",
          "internalType": "address"
        }
      ],
      "outputs": [
        {
          "name": "",
          "type": "tuple",
          "internalType": "struct ContestData.UserTeam",
          "components": [
            {
              "name": "userAddress",
              "type": "address",
              "internalType": "address"
            },
            {
              "name": "contestId",
              "type": "bytes32",
              "internalType": "bytes32"
            },
            {
              "name": "playerIds",
              "type": "string[]",
              "internalType": "string[]"
            },
            {
              "name": "captainId",
              "type": "string",
              "internalType": "string"
            },
            {
              "name": "viceCaptainId",
              "type": "string",
              "internalType": "string"
            },
            {
              "name": "totalPoints",
              "type": "uint256",
              "internalType": "uint256"
            },
            {
              "name": "rank",
              "type": "uint256",
              "internalType": "uint256"
            }
          ]
        }
      ],
      "stateMutability": "view"
    },
    {
      "type": "function",
      "name": "matchContestCount",
      "inputs": [
        {
          "name": "",
          "type": "string",
          "internalType": "string"
        }
      ],
      "outputs": [
        {
          "name": "",
          "type": "uint256",
          "internalType": "uint256"
        }
      ],
      "stateMutability": "view"
    },
    {
      "type": "function",
      "name": "matchContests",
      "inputs": [
        {
          "name": "",
          "type": "string",
          "internalType": "string"
        },
        {
          "name": "",
          "type": "uint256",
          "internalType": "uint256"
        }
      ],
      "outputs": [
        {
          "name": "",
          "type": "bytes32",
          "internalType": "bytes32"
        }
      ],
      "stateMutability": "view"
    },
    {
      "type": "function",
      "name": "owner",
      "inputs": [],
      "outputs": [
        {
          "name": "",
          "type": "address",
          "internalType": "address"
        }
      ],
      "stateMutability": "view"
    },
    {
      "type": "function",
      "name": "renounceOwnership",
      "inputs": [],
      "outputs": [],
      "stateMutability": "nonpayable"
    },
    {
      "type": "function",
      "name": "requestMatchData",
      "inputs": [
        {
          "name": "contestId",
          "type": "bytes32",
          "internalType": "bytes32"
        }
      ],
      "outputs": [],
      "stateMutability": "payable"
    },
    {
      "type": "function",
      "name": "setContestPrizeBreakdown",
      "inputs": [
        {
          "name": "contestId",
          "type": "bytes32",
          "internalType": "bytes32"
        },
        {
          "name": "prizeBreakdown",
          "type": "tuple[]",
          "internalType": "struct ContestData.PrizeBreakdown[]",
          "components": [
            {
              "name": "rank",
              "type": "uint256",
              "internalType": "uint256"
            },
            {
              "name": "percentage",
              "type": "uint256",
              "internalType": "uint256"
            }
          ]
        }
      ],
      "outputs": [],
      "stateMutability": "nonpayable"
    },
    {
      "type": "function",
      "name": "setDefaultPrizeBreakdown",
      "inputs": [
        {
          "name": "prizeBreakdown",
          "type": "tuple[]",
          "internalType": "struct ContestData.PrizeBreakdown[]",
          "components": [
            {
              "name": "rank",
              "type": "uint256",
              "internalType": "uint256"
            },
            {
              "name": "percentage",
              "type": "uint256",
              "internalType": "uint256"
            }
          ]
        }
      ],
      "outputs": [],
      "stateMutability": "nonpayable"
    },
    {
      "type": "function",
      "name": "submitTeam",
      "inputs": [
        {
          "name": "contestId",
          "type": "bytes32",
          "internalType": "bytes32"
        },
        {
          "name": "playerIds",
          "type": "string[]",
          "internalType": "string[]"
        },
        {
          "name": "captainId",
          "type": "string",
          "internalType": "string"
        },
        {
          "name": "viceCaptainId",
          "type": "string",
          "internalType": "string"
        }
      ],
      "outputs": [],
      "stateMutability": "payable"
    },
    {
      "type": "function",
      "name": "transferOwnership",
      "inputs": [
        {
          "name": "newOwner",
          "type": "address",
          "internalType": "address"
        }
      ],
      "outputs": [],
      "stateMutability": "nonpayable"
    },
    {
      "type": "function",
      "name": "updateContestStatus",
      "inputs": [
        {
          "name": "contestId",
          "type": "bytes32",
          "internalType": "bytes32"
        },
        {
          "name": "status",
          "type": "uint8",
          "internalType": "enum ContestData.MatchStatus"
        }
      ],
      "outputs": [],
      "stateMutability": "nonpayable"
    },
    {
      "type": "function",
      "name": "updateCricketApiKey",
      "inputs": [
        {
          "name": "_cricketApiKey",
          "type": "string",
          "internalType": "string"
        }
      ],
      "outputs": [],
      "stateMutability": "nonpayable"
    },
    {
      "type": "function",
      "name": "userContestEntries",
      "inputs": [
        {
          "name": "",
          "type": "bytes32",
          "internalType": "bytes32"
        },
        {
          "name": "",
          "type": "address",
          "internalType": "address"
        }
      ],
      "outputs": [
        {
          "name": "",
          "type": "uint256",
          "internalType": "uint256"
        }
      ],
      "stateMutability": "view"
    },
    {
      "type": "event",
      "name": "ContestCreated",
      "inputs": [
        {
          "name": "contestId",
          "type": "bytes32",
          "indexed": true,
          "internalType": "bytes32"
        },
        {
          "name": "matchId",
          "type": "string",
          "indexed": false,
          "internalType": "string"
        },
        {
          "name": "entryFee",
          "type": "uint256",
          "indexed": false,
          "internalType": "uint256"
        }
      ],
      "anonymous": false
    },
    {
      "type": "event",
      "name": "OwnershipTransferred",
      "inputs": [
        {
          "name": "previousOwner",
          "type": "address",
          "indexed": true,
          "internalType": "address"
        },
        {
          "name": "newOwner",
          "type": "address",
          "indexed": true,
          "internalType": "address"
        }
      ],
      "anonymous": false
    },
    {
      "type": "event",
      "name": "PrizesDistributed",
      "inputs": [
        {
          "name": "contestId",
          "type": "bytes32",
          "indexed": true,
          "internalType": "bytes32"
        },
        {
          "name": "winners",
          "type": "address[]",
          "indexed": false,
          "internalType": "address[]"
        },
        {
          "name": "amounts",
          "type": "uint256[]",
          "indexed": false,
          "internalType": "uint256[]"
        }
      ],
      "anonymous": false
    },
    {
      "type": "event",
      "name": "ScoresFinalized",
      "inputs": [
        {
          "name": "contestId",
          "type": "bytes32",
          "indexed": true,
          "internalType": "bytes32"
        },
        {
          "name": "matchId",
          "type": "string",
          "indexed": false,
          "internalType": "string"
        }
      ],
      "anonymous": false
    },
    {
      "type": "event",
      "name": "TeamSubmitted",
      "inputs": [
        {
          "name": "contestId",
          "type": "bytes32",
          "indexed": true,
          "internalType": "bytes32"
        },
        {
          "name": "user",
          "type": "address",
          "indexed": true,
          "internalType": "address"
        },
        {
          "name": "teamIndex",
          "type": "uint256",
          "indexed": false,
          "internalType": "uint256"
        }
      ],
      "anonymous": false
    },
    {
      "type": "error",
      "name": "OwnableInvalidOwner",
      "inputs": [
        {
          "name": "owner",
          "type": "address",
          "internalType": "address"
        }
      ]
    },
    {
      "type": "error",
      "name": "OwnableUnauthorizedAccount",
      "inputs": [
        {
          "name": "account",
          "type": "address",
          "internalType": "address"
        }
      ]
    }
  ],
  "bytecode": {
    "object": "0x6080604052346102f5576162dc8038038061001981610319565b928339810160209081838203126102f55782516001600160401b03938482116102f55701601f908282820112156102f55780518581116101d257601f199161006682850184168701610319565b948286528683830101116102f557859060005b8381106102e15750506000918501015233156102c85760008054336001600160a01b031980831682178455976001600160a01b0396909390928716907f8be0079c531659141344cd1fd0a4f28419497f9722a3daafe3b4186f6b6457e09080a38051908282116101d2576002948554916001958684811c941680156102be575b8a8510146102a8578383869511610253575b50899284116001146101f357506000926101e8575b5050600019600383901b1c191690831b1783555b6040519061203490818301908111838210176101d25782916142a8833903906000f09081156101c6576101b79561019f946101889316908254161781556101796102fa565b9081526113888582015261033e565b6101906102fa565b908152610bb88382015261033e565b6107d06101aa6102fa565b916003835282015261033e565b604051613f1290816103968239f35b6040513d6000823e3d90fd5b634e487b7160e01b600052604160045260246000fd5b015190503880610120565b8694929192169187600052896000209260005b8b82821061023d5750508411610224575b505050811b018355610134565b015160001960f88460031b161c19169055388080610217565b8385015186558997909501949384019301610206565b909192935087600052896000208480870160051c8201928c881061029f575b9187968a92969594930160051c01915b82811061029057505061010b565b60008155879650899101610282565b92508192610272565b634e487b7160e01b600052602260045260246000fd5b93607f16936100f9565b604051631e4fbdf760e01b815260006004820152602490fd5b818101830151878201840152879201610079565b600080fd5b60408051919082016001600160401b038111838210176101d257604052565b6040519190601f01601f191682016001600160401b038111838210176101d257604052565b600c54680100000000000000008110156101d2576001810180600c5581101561037f576020600191600c6000528160002090831b0192805184550151910155565b634e487b7160e01b600052603260045260246000fdfe61010080604052600436101561001457600080fd5b60003560e01c90816303cfb84714612e9357508063051f6f8414612caf57806310dd371c1461262457806324d07651146124445780632ecacb2e146121c8578063447ab0221461219f5780635bb0d0db146117dc578063648775051461159757806364c3c166146115795780636753c5891461146c57806368432bfe146113b85780636e5e3f5e14611359578063715018a61461130057806385fb8ab914610d2c57806387e7d22a14610cb35780638a46551614610c8a5780638da5cb5b14610c615780638facd93f14610aeb578063a0505c3514610a57578063a1e516fd14610a0f578063a7ce04fb14610936578063ba53fd8d146107ee578063be01e9b7146107a5578063cbe17bcf1461064c578063ea269c841461056d578063eaa150d3146103f5578063ee413bea146103b0578063f22d36a2146101ef5763f2fde38b1461015f57600080fd5b346101ea5760203660031901126101ea576004356001600160a01b03818116918290036101ea5761018e613d81565b81156101d157600054826001600160601b0360a01b821617600055167f8be0079c531659141344cd1fd0a4f28419497f9722a3daafe3b4186f6b6457e0600080a3005b604051631e4fbdf760e01b815260006004820152602490fd5b600080fd5b346101ea576020806003193601126101ea576040519061020e82612f46565b60008252606081830152606060408301526000606083015260006080830152600060a0830152600060c0830152600060e0830152610100600081840152600061012080940152600435600052600482526040600020926040519361027185612f46565b8054855260405161029081610289816001860161322b565b0382612f99565b848601908152604051926102b2846102ab816002870161322b565b0385612f99565b60408701938452600383015494606088019586526004840154906080890191825260058501549460a08a01958652600681015460c08b01908152600860078301549260e08d0193845201549660ff881694848d0195600481101561039a5761038f9860ff8f8a90610367948b52019b60081c1615158b526040519e8f9e8f9181835251910152519a8d6103536101409d8e60408401526101608301906130c5565b9151906060601f19828503019101526130c5565b9a5160808d01525160a08c01525160c08b01525160e08a01525190880152519086019061330c565b511515908301520390f35b634e487b7160e01b600052602160045260246000fd5b346101ea576103be366131bf565b90600052600b602052604060002080548210156101ea576040916103e191613086565b506001815491015482519182526020820152f35b346101ea576020806003193601126101ea576004356001600160401b0381116101ea5761042690369060040161301c565b9161042f613d81565b6000805b84811061054b57506127106104489114613441565b600c92600c546000600c55806104d6575b5060005b81811061046657005b610471818386613424565b908554600160401b8110156104c057610490600191828101895561304c565b9190916104aa57858460019535845501359101550161045d565b634e487b7160e01b600052600060045260246000fd5b634e487b7160e01b600052604160045260246000fd5b60016001600160ff1b038216820361053557600c6000527fdf6966c971051c3d54ec59162606531493a51404a002842f56009d7e5cf4a8c79160011b8201915b828110610524575050610459565b600080825582820155600201610516565b634e487b7160e01b600052601160045260246000fd5b906105666001918461055e858989613424565b013590613434565b9101610433565b346101ea5760203660031901126101ea57600435600052600460205260406000208054604051916105ac836105a5816001850161322b565b0384612f99565b60ff6040516105c281610289816002870161322b565b6003830154926004810154600582015460068301549161061260086007860154950154956106046040519b8c809c6020610140928392815201528c01906130c5565b908a820360408c01526130c5565b966060890152608088015260a087015260c086015260e085015261063c610100850183831661330c565b60081c1615156101208301520390f35b346101ea576020806003193601126101ea576004356001600160401b0381116101ea5781610681610694923690600401612fd5565b81604051938285809451938492016130a2565b8101600a8152030190206040519081838254918281520191600052836000209060005b81811061079157505050816106cd910382612f99565b8051916106d9836132c1565b926106e76040519485612f99565b8084526106f6601f19916132c1565b0190369084013760009160038054935b835181101561077f5761071981856134bd565b5190600019820182811161053557861115610769577fc2575a0e9e593c00f959f8c92f12db2869c3395a3b0502d05e2516446f71f85a60019284600052015461076282866134bd565b5201610706565b634e487b7160e01b600052603260045260246000fd5b6040518061078d8582612f0a565b0390f35b8254845292850192600192830192016106b7565b346101ea5760203660031901126101ea576004356001600160401b0381116101ea576107db602061068181933690600401612fd5565b8101600981520301902054604051908152f35b346101ea576107fc366131bf565b90600052600660205260406000209081548110156101ea5761081d916132f0565b5060405161082f81610289818561322b565b6001820154608052600282015460a052600382015460e05260048201549160058101546006820154600783015460088401546009850154600a86015490600b87015492600c88015494600d89015496600e8a0154986108aa6010600f8d01549c01549c60405160c0526102208060c0515260c05101906130c5565b9c608051602060c051015260a051604060c051015260e051606060c0510152608060c051015260a060c051015260c08051015260e060c051015261010060c051015261012060c051015261014060c051015261016060c051015261018060c05101526101a060c05101526101c060c05101526101e060c051015261020060c051015260c051900360c051f35b346101ea576020806003193601126101ea5760043560005260058152604060002090815491610964836132c1565b926109726040519485612f99565b8084528284018092600052836000206000915b8383106109ec5750505050604051918083019381845251809452604083019360408160051b85010192916000955b8287106109c05785850386f35b9091929382806109dc600193603f198a82030186528851613100565b96019201960195929190926109b3565b6007866001926109fe859a999a613912565b815201920192019190959495610985565b346101ea5760403660031901126101ea57610a286130ea565b600435600052600760205260406000209060018060a01b03166000526020526020604060002054604051908152f35b346101ea576020806003193601126101ea576004356001600160401b0381116101ea5781610681610a8c923690600401612fd5565b8101600881520301902090604051908181845491828152019360005281600020916000905b828210610ad45761078d85610ac881890382612f99565b60405191829182612f0a565b835486529485019460019384019390910190610ab1565b346101ea576020806003193601126101ea576001600160401b036004358181116101ea57610b1d903690600401612fd5565b91610b26613d81565b82519182116104c057610b3a6002546131f1565b601f8111610c07575b50602090601f8311600114610b8657508190610b7693600092610b7b575b50508160011b916000199060031b1c19161790565b600255005b015190508380610b61565b90601f1983169360026000527f405787fa12a823e0f2b7631cc41b3ba8828b3321ca811111fa75cd3aa3bb5ace926000905b868210610bef5750508360019510610bd6575b505050811b01600255005b015160001960f88460031b161c19169055828080610bcb565b80600185968294968601518155019501930190610bb8565b610c519060026000527f405787fa12a823e0f2b7631cc41b3ba8828b3321ca811111fa75cd3aa3bb5ace601f850160051c81019160208610610c57575b601f0160051c01906133aa565b83610b43565b9091508190610c44565b346101ea5760003660031901126101ea576000546040516001600160a01b039091168152602090f35b346101ea5760003660031901126101ea576001546040516001600160a01b039091168152602090f35b346101ea5760403660031901126101ea576004356001600160401b0381116101ea57610ce3903690600401612fd5565b610cff60206024359281604051938285809451938492016130a2565b8101600881520301902080548210156101ea57602091610d1e916132d8565b90546040519160031b1c8152f35b60803660031901126101ea576024356001600160401b038082116101ea57366023830112156101ea578160040135610d63816132c1565b92610d716040519485612f99565b8184526024602085019260051b820101913683116101ea5760248201905b8382106112d85785856044358181116101ea57610db0903690600401612fd5565b906064359081116101ea57610dc9903690600401612fd5565b60043560005260046020526040600020916004830154610dea811515613319565b421015611293576003830154341061125557600435600052600760205260406000203360005260205260406000205461121057600b8451036111c1576000926000805b8651811015610f0357610e4081886134bd565b51604051610e6b60208281610e5e81830196878151938492016130a2565b8101038084520182612f99565b5190206040516020810190610e8d60208281610e5e8b878151938492016130a2565b51902014610efa575b610ea081886134bd565b51604051610ebe60208281610e5e81830196878151938492016130a2565b5190206040516020810190610ee060208281610e5e8c878151938492016130a2565b51902014610ef1575b600101610e2d565b60019150610ee9565b60019550610e96565b50909493156111865715611141576040516020810190610f2e6020828551610e5e8187858a016130a2565b5190206040516020810190610f4e6020828751610e5e8187858c016130a2565b519020146110e95760405192610f6384612f7e565b3384526004356020850152604084015260608301526080820152600060a0820152600060c08201526004356000526005602052604060002090815491600160401b8310156104c05782610fbe916001610fc4950181556131d5565b90613a7b565b6004356000526005602052604060002054600760205260406000203360005260205260406000205560078101610ffa8154613415565b90556003810154600a810291818304600a14821517156105355760008080938193611038600661102e60648a048095613905565b9201918254613434565b905581546001600160a01b03165af161104f61348d565b50156110a457600435600052600560205260406000205460001981019081116105355760405190815233907faca0adc08d5c94504856fb3b42c26640bd89ec72c1f2fe87d1458b7ac6b375a2602060043592a3005b60405162461bcd60e51b815260206004820152601960248201527f41646d696e20666565207472616e73666572206661696c6564000000000000006044820152606490fd5b60405162461bcd60e51b815260206004820152602a60248201527f4361707461696e20616e6420766963652d6361707461696e206d75737420626560448201526908191a5999995c995b9d60b21b6064820152608490fd5b60405162461bcd60e51b815260206004820152601860248201527f566963652d6361707461696e206e6f7420696e207465616d00000000000000006044820152606490fd5b60405162461bcd60e51b81526020600482015260136024820152724361707461696e206e6f7420696e207465616d60681b6044820152606490fd5b60405162461bcd60e51b815260206004820152602160248201527f5465616d206d75737420686176652065786163746c7920313120706c617965726044820152607360f81b6064820152608490fd5b60405162461bcd60e51b815260206004820152601860248201527f416c7265616479207375626d69747465642061207465616d00000000000000006044820152606490fd5b60405162461bcd60e51b8152602060048201526016602482015275496e73756666696369656e7420656e7472792066656560501b6044820152606490fd5b60405162461bcd60e51b815260206004820152601b60248201527f436f6e746573742068617320616c7265616479207374617274656400000000006044820152606490fd5b81358581116101ea576020916112f5839260243691880101612fd5565b815201910190610d8f565b346101ea5760003660031901126101ea57611319613d81565b600080546001600160a01b0319811682556001600160a01b03167f8be0079c531659141344cd1fd0a4f28419497f9722a3daafe3b4186f6b6457e08280a3005b346101ea5760403660031901126101ea5760043560243560048110156101ea576113b691611385613d81565b8060005260046020526113a16004604060002001541515613319565b600052600460205260086040600020016133fd565b005b346101ea576113c6366131bf565b90600052600560205260406000209081548110156101ea576113e7916131d5565b5060018060a01b0381541660018201549160405161140c81610289816003860161322b565b61145d60405161142381610289816004880161322b565b61144f60066005860154950154936040519788978852602088015260c0604088015260c08701906130c5565b9085820360608701526130c5565b91608084015260a08301520390f35b346101ea5760403660031901126101ea576004356114886130ea565b906040519161149683612f7e565b60008352600060c0602094828682015260606040820152606080820152606060808201528260a08201520152816000526007835260406000209060018060a01b0316600052825260406000205490811561152a576000526005825260406000206000198201918211610535576115159161150f916131d5565b50613912565b9061078d604051928284938452830190613100565b60405162461bcd60e51b815260048101849052602160248201527f5573657220686173206e6f7420656e7465726564207468697320636f6e7465736044820152601d60fa1b6064820152608490fd5b346101ea5760003660031901126101ea576020600354604051908152f35b346101ea576020806003193601126101ea5760043560005260069060068152604060002080546115c6816132c1565b936115d46040519586612f99565b81855260009283528383208486019391845b8484106116fd57604080518881528951818a01819052600092600582901b83018101918a918c9085015b82871061161d5785850386f35b909192938280600192603f198982030185528751906116466102208351908084528301906130c5565b91838101518483015260408101516040830152606080820151908301526080808201519083015260a0808201519083015260c0808201519083015260e081015160e0830152610100808201519083015261012080820151908301526101408082015190830152610160808201519083015261018080820151908301526101a080820151908301526101c080820151908301526101e08082015190830152610200809101519101529601920196019592919092611610565b60118760019260409a999a5161171281612f62565b60405161172381610289818b61322b565b81528487015483820152600287015460408201526003870154606082015260048701546080820152600587015460a08201528587015460c0820152600787015460e082015260088701546101008201526009870154610120820152600a870154610140820152600b870154610160820152600c870154610180820152600d8701546101a0820152600e8701546101c0820152600f8701546101e082015260108701546102008201528152019301930192919695966115e6565b346101ea5760403660031901126101ea576001600160401b03602435116101ea576040602435360360031901126101ea57611815613d81565b6004356000526004602052604060002061183460048201541515613319565b61184860ff600883015460081c161561335e565b60018060a01b036001541660405190637626423b60e11b825260406004830152611878604483016001850161322b565b90600319838303016024840152602435600401356022196024353603018112156101ea5760243501906001600160401b036004830135116101ea57600482013560051b360360248301136101ea57604080845260048301359084018190526001600160fb1b03106101ea57600482013560051b60248301606085013760c21960243536030160248035013512156101ea5760048281013560051b84018481036060908101602087015260248035808201350193840135918301919091528201356080909101526001600160401b03906119539060440161378f565b1660a0600484013560051b850101526001600160401b0361197f6064602435602480350135010161378f565b16600483013560051b840160c00152602480359081013501368190036062190160849091013512156101ea57611a746024356024803501350160846024356024803501350101350184611a556004830160c060e0600489013560051b850101526044611a4d611a1989600460606101206119f988806137a3565b939094013560051b8a01015261018060048d013560051b890101916137d4565b611a2660248801856137a3565b908b61014061011f199960048b8185013560051b830188030193013560051b0101526137d4565b9401906137a3565b600487013560051b8801808503909301610160909301929092526137d4565b92602480359081013501368190036022190160a49091013512156101ea5760049283013560051b01808403605f190161010091909101526000928492839185918391611ae591602090611ad89060a4602480359081013501908101350101806137a3565b91909281815201916137d4565b03925af1908115611f1b57600091612184575b5060405190635cfa869760e11b82526020600483015281611b57611b41611b2b845160a0602486015260c48501906130c5565b60208501518482036023190160448601526130c5565b60408401518382036023190160648501526130c5565b606083015190602319838203016084840152815180825260208201916020808360051b8301019401926000915b83831061215157898760008180611bab8b60808f01516023198483030160a48501526137f5565b038173__$3db7b772cbf856ad84c0087fd7ee5880d8$__5af4908115611f1b5760009161212e575b50906000915b6080810192835151811015611db3576004356000526006602052611c0381604060002095516134bd565b51938054600160401b8110156104c057611c22916001820181556132f0565b6104aa5784519485516001600160401b0381116104c057611c4d81611c4785546131f1565b856133c1565b602096601f8211600114611d405791611c888261020093600198999a601096600092611d355750508160011b916000199060031b1c19161790565b84555b60208101518685015560408101516002850155606081015160038501556080810151600485015560a0810151600585015560c0810151600685015560e0810151600785015561010081015160088501556101208101516009850155610140810151600a850155610160810151600b850155610180810151600c8501556101a0810151600d8501556101c0810151600e8501556101e0810151600f8501550151910155019190611bd9565b015190508b80610b61565b968360005260206000209760005b601f1984168110611d9b575082600197989960109593899361020096601f19811610611d82575b505050811b018455611c8b565b015160001960f88460031b161c191690558a8080611d75565b818301518a5560019099019860209283019201611d4e565b5090600435600052600560205260406000209160005b8354811015611f5757611e08906080830151611de582876131d5565b5090604051938491633971b87160e01b83526040600484015260448301906137f5565b60031982820301602483015260e0810160018060a01b03845416825260018401546020830152600284019060e06040840152815480915261010083016101008260051b8501019260005260206000209160005b818110611f275750505050928160c06006611e98611e8788889760209a0360608701526003870161322b565b84810360808601526004860161322b565b93600581015460a08501520154910152038173__$3db7b772cbf856ad84c0087fd7ee5880d8$__5af48015611f1b57600090611ee8575b600192506005611edf83886131d5565b50015501611dc9565b506020823d602011611f13575b81611f0260209383612f99565b810103126101ea5760019151611ecf565b3d9150611ef5565b6040513d6000823e3d90fd5b91936001809294969750611f4660209260ff198a82030188528861322b565b960194019101918895949392611e5b565b8260043560005260056020526040600020908154906000905b826000198101116105355760001983018210156120a85760005b611f948385613905565b60001981019081116105355781101561209d576005611fb382876131d5565b500154600182018211610535576005611fcf60018401886131d5565b50015411611fe0575b600101611f8a565b611fed61150f82876131d5565b90611ffb60018201876131d5565b5061200682886131d5565b9390936104aa57838261202a9360019603612031575b5050610fbe848401896131d5565b9050611fd8565b858060a01b038154166001600160601b0360a01b83541617825585810154868301556120636002808301908401613e8a565b6120736003808301908401613dad565b6120836004820160048401613dad565b60058101546005830155600680910154910155888061201c565b509060010190611f70565b838360005b81811061210a578361010261ffff196008830154161760088201557fbc9c1676dbbb8566f3bcb1dbd6c97d68c1464fad2c547d44e0b22875f6c91626604051602081528061210560043594600160208401910161322b565b0390a2005b600181019081811161053557600191600661212583876131d5565b500155016120ad565b61214b91503d806000833e6121438183612f99565b810190613516565b82611bd3565b91939695509193602080612171600193601f198682030187528a516130c5565b9801930193019092879596949293611b84565b61219991503d806000833e6121438183612f99565b82611af8565b346101ea5760203660031901126101ea57600435600c548110156101ea576103e160409161304c565b346101ea576020806003193601126101ea576004356121e5613d81565b806000526004825260406000209061220260048301541515613319565b60ff600883015460081c1615612408579081600052600583526040600020600b8452604060002093845494612236866132c1565b926122446040519485612f99565b868452612250876132c1565b8484019690601f1990810136893761228061226a8a6132c1565b996122786040519b8c612f99565b808b526132c1565b8986019101368237600660009701965b845481101561236a5783546122a58287613086565b505411612362576122b681856131d5565b50885460016122c58489613086565b500154908181029181830414901517156105355761271090049060018060a01b0390600080808086868654165af16122fb61348d565b50156123255754600193929116612312838b6134bd565b5261231d828d6134bd565b525b01612290565b60405162461bcd60e51b8152600481018a90526015602482015274141c9a5e99481d1c985b9cd9995c8819985a5b1959605a1b6044820152606490fd5b60019061231f565b50859085898b604051946040860190604087525180915260608601929060005b8181106123eb575050508482038584015251808252908201929160005b8281106123d757867fdf1170406f09e2646fd7a4e7a758d06a57e00639018cf37c64e8aee2c741aeb387870388a2005b8351855293810193928101926001016123a7565b82516001600160a01b03168552938501939185019160010161238a565b60405162461bcd60e51b815260048101849052601460248201527314d8dbdc995cc81b9bdd08199a5b985b1a5e995960621b6044820152606490fd5b346101ea5760403660031901126101ea57602460043581356001600160401b0381116101ea5761247890369060040161301c565b9190612482613d81565b81600052602091600483526124a06004604060002001541515613319565b80600052600483526007604060002001546125cf576000805b8581106125b557506127106124ce9114613441565b80600052600b90600b845260406000208054906000815581612575575b505060005b8581106124f957005b81600052828552604060002090612511818887613424565b918054600160401b81101561256057612531906001928382018155613086565b91909161254b5787846001953584550135910155016124f0565b89634e487b7160e01b60005260006004526000fd5b89634e487b7160e01b60005260416004526000fd5b6001906001600160ff1b038316830361053557600052856000209160011b8201915b8281106125a457506124eb565b600080825582820155600201612597565b906125c86001918661055e858a89613424565b91016124b9565b60405162461bcd60e51b815260048101849052602760248201527f43616e6e6f74206368616e6765206166746572207061727469636970616e7473604482015266081a9bda5b995960ca1b6064820152608490fd5b346101ea5760a03660031901126101ea576004356001600160401b0381116101ea57612654903690600401612fd5565b6024356001600160401b0381116101ea57612673903690600401612fd5565b9061267c613d81565b6005604051602081845161269381838589016130a2565b81016009815203019020541015612c6a57426064351115612c26576064356084351115612bd757604051602081019061271b60a08285516126d8818760208a016130a2565b81018751906126ee826020830160208c016130a2565b01604435602082015260643560408201526084356060820152426080820152036080810184520182612f99565b51902091826000526004602052600460406000200154612b92576040519061274282612f46565b83825282602083015260408201526044356060820152606435608082015260843560a0820152600060c0820152600060e08201526000610100820152600061012082015282600052600460205260406000208151815560208201518051906001600160401b0382116104c0576127c8826127bf60018601546131f1565b600186016133c1565b602090601f8311600114612b20576127f8929160009183612b155750508160011b916000199060031b1c19161790565b60018201555b60408201518051906001600160401b0382116104c05761282e8261282560028601546131f1565b600286016133c1565b602090601f8311600114612aa25791806128629260089594600092612a975750508160011b916000199060031b1c19161790565b60028201555b606083015160038201556080830151600482015560a0830151600582015560c0830151600682015560e08301516007820155019061010081015190600482101561039a576128b961012092846133fd565b0151151561ff0082549160081b169061ff00191617905560405160208183516128e581838588016130a2565b8101600881520301902091825492600160401b93848110156104c057612915818493600161292c940181556132d8565b819391549060031b91821b91600019901b19161790565b9055604051602081845161294381838589016130a2565b810160098152030190206129578154613415565b9055600354838110156104c057600181018060035581101561076957819060036000527fc2575a0e9e593c00f959f8c92f12db2869c3395a3b0502d05e2516446f71f85b015560035460405160208185516129b58183858a016130a2565b8101600a815203019020805490858210156104c057816129159160016129dd940181556132d8565b905560005b600c54811015612a485781600052600b602052604060002090612a048161304c565b50918054868110156104c057612a1f91600182018155613086565b6104aa57826001938203612a36575b5050016129e2565b80548255830154908301558580612a2e565b50807f4e07bfa1c3b21d3be63af156de05b9ac1b7892062069bc522301b73b93b79b31612a856020946040519182916040835260408301906130c5565b604435878301520390a2604051908152f35b015190508880610b61565b906002840160005260206000209160005b601f1985168110612afd575091839160019360089695601f19811610612ae4575b505050811b016002820155612868565b015160001960f88460031b161c19169055878080612ad4565b91926020600181928685015181550194019201612ab3565b015190508780610b61565b9190600184016000526020600020906000935b601f1984168510612b77576001945083601f19811610612b5e575b505050811b0160018201556127fe565b015160001960f88460031b161c19169055868080612b4e565b81810151835560209485019460019093019290910190612b33565b60405162461bcd60e51b815260206004820152601960248201527f436f6e7465737420494420616c726561647920657869737473000000000000006044820152606490fd5b60405162461bcd60e51b815260206004820152602160248201527f456e642074696d65206d7573742062652061667465722073746172742074696d6044820152606560f81b6064820152608490fd5b606460405162461bcd60e51b815260206004820152602060248201527f53746172742074696d65206d75737420626520696e20746865206675747572656044820152fd5b60405162461bcd60e51b815260206004820152601e60248201527f4d617820636f6e746573747320706572206d61746368207265616368656400006044820152606490fd5b600319602036820181136101ea57612cc5613d81565b60043560005260048152604060002091612ce460048401541515613319565b600883015460ff8116600481101561039a576002148015612e86575b15612e4b57928291612d1b60ff612d4e9660081c161561335e565b60019060018060a01b03600154169160405196879463cdddf48360e01b865260406004870152600160448701910161322b565b9184830301602485015260009160025491612d68836131f1565b928383528688600183169283600014612e2b57505050600114612dd0575b505050828091039134905af18015611f1b57612d9e57005b81813d8311612dc9575b612db28183612f99565b810103126101ea575163ffffffff8116036101ea57005b503d612da8565b92509060026000527f405787fa12a823e0f2b7631cc41b3ba8828b3321ca811111fa75cd3aa3bb5ace926000935b828510612e1357505050018301828088612d86565b805484860189015288978a9750909401938101612dfe565b9196509392508594915060ff191683830152151560051b01019188612d86565b60405162461bcd60e51b815260048101849052601360248201527213585d18da081b9bdd08195b991959081e595d606a1b6044820152606490fd5b5060058401544211612d00565b346101ea5760003660031901126101ea576003549081815260208082019260036000527fc2575a0e9e593c00f959f8c92f12db2869c3395a3b0502d05e2516446f71f85b916000905b828210612ef35761078d85610ac881890382612f99565b835486529485019460019384019390910190612edc565b602090602060408183019282815285518094520193019160005b828110612f32575050505090565b835185529381019392810192600101612f24565b61014081019081106001600160401b038211176104c057604052565b61022081019081106001600160401b038211176104c057604052565b60e081019081106001600160401b038211176104c057604052565b90601f801991011681019081106001600160401b038211176104c057604052565b6001600160401b0381116104c057601f01601f191660200190565b81601f820112156101ea57803590612fec82612fba565b92612ffa6040519485612f99565b828452602083830101116101ea57816000926020809301838601378301015290565b9181601f840112156101ea578235916001600160401b0383116101ea576020808501948460061b0101116101ea57565b600c5481101561076957600c60005260011b7fdf6966c971051c3d54ec59162606531493a51404a002842f56009d7e5cf4a8c70190600090565b80548210156107695760005260206000209060011b0190600090565b60005b8381106130b55750506000910152565b81810151838201526020016130a5565b906020916130de815180928185528580860191016130a2565b601f01601f1916010190565b602435906001600160a01b03821682036101ea57565b9060e0810160018060a01b038351168252602080840151602084015260408401519160e060408501528251809152610100916020838601938360051b8701019401926000905b83821061319357505050505060c061318061316e8293606087015186820360608801526130c5565b608086015185820360808701526130c5565b9360a081015160a0850152015191015290565b909192939483806131b060019360ff198b820301865289516130c5565b97019201920190939291613146565b60409060031901126101ea576004359060243590565b8054821015610769576000526007602060002091020190600090565b90600182811c92168015613221575b602083101461320b57565b634e487b7160e01b600052602260045260246000fd5b91607f1691613200565b80546000939261323a826131f1565b918282526020936001916001811690816000146132a25750600114613261575b5050505050565b90939495506000929192528360002092846000945b83861061328e5750505050010190388080808061325a565b805485870183015294019385908201613276565b60ff19168685015250505090151560051b01019150388080808061325a565b6001600160401b0381116104c05760051b60200190565b80548210156107695760005260206000200190600090565b8054821015610769576000526011602060002091020190600090565b90600482101561039a5752565b1561332057565b60405162461bcd60e51b815260206004820152601660248201527510dbdb9d195cdd08191bd95cc81b9bdd08195e1a5cdd60521b6044820152606490fd5b1561336557565b60405162461bcd60e51b815260206004820152601860248201527f53636f72657320616c72656164792066696e616c697a656400000000000000006044820152606490fd5b8181106133b5575050565b600081556001016133aa565b9190601f81116133d057505050565b6133fb926000526020600020906020601f840160051c83019310610c5757601f0160051c01906133aa565b565b90600481101561039a5760ff80198354169116179055565b60001981146105355760010190565b91908110156107695760061b0190565b9190820180921161053557565b1561344857565b60405162461bcd60e51b815260206004820152601d60248201527f546f74616c2070657263656e74616765206d75737420626520313030250000006044820152606490fd5b3d156134b8573d9061349e82612fba565b916134ac6040519384612f99565b82523d6000602084013e565b606090565b80518210156107695760209160051b010190565b81601f820112156101ea5780516134e781612fba565b926134f56040519485612f99565b818452602082840101116101ea5761351391602080850191016130a2565b90565b90602080838303126101ea5782516001600160401b03938482116101ea57019160a09060a0848203126101ea5760409182519560a08701878110828211176104c057845285518181116101ea578361356f9188016134d1565b8752848601518181116101ea57836135889188016134d1565b85880152838601518181116101ea57836135a39188016134d1565b8488015260609160608701518281116101ea57870184601f820112156101ea5780516135ce816132c1565b916135db88519384612f99565b818352888084019260051b820101918783116101ea57898201905b83821061376a575050505060608901526080966080810151908382116101ea57019484601f870112156101ea5785519361362f856132c1565b9861363c83519a8b612f99565b858a5288808b019660051b890101978789116101ea57898101965b898810613671575050505050505050505050608082015290565b87518781116101ea5782016102209182601f19838d0301126101ea57865161369881612f62565b8d830151928a84116101ea578e946136b58e8780978501016134d1565b83528982015185840152888201518a84015287820151898401528a8201518884015260c091828101518c85015260e09283820151908501526101009283820151908501526101209283820151908501526101409283820151908501526101609283820151908501526101809283820151908501526101a09283820151908501526101c09283820151908501526101e0928382015190850152610200928382015190850152015190820152815201970196613657565b81518781116101ea578b916137848b8480948801016134d1565b8152019101906135f6565b35906001600160401b03821682036101ea57565b9035601e19823603018112156101ea5701602081359101916001600160401b0382116101ea5781360383136101ea57565b908060209392818452848401376000828201840152601f01601f1916010190565b908082519081815260208091019281808460051b8301019501936000915b8483106138235750505050505090565b9091929394958480600192601f1985820301865289519061384e6102208351908084528301906130c5565b91838101518483015260408082015190830152606080820151908301526080808201519083015260a0808201519083015260c0808201519083015260e08082015190830152610100808201519083015261012080820151908301526101408082015190830152610160808201519083015261018080820151908301526101a080820151908301526101c080820151908301526101e08082015190830152610200809101519101529801930193019194939290613813565b9190820391821161053557565b9060409182519061392282612f7e565b819360018060a01b0382541683526001808301549060209160208601526002840180549061394f826132c1565b9361395c86519586612f99565b828552602085019160005260206000206000925b8484106139c857505050505050918160c093600693860152805161399b81610289816003870161322b565b6060860152516139b281610289816004860161322b565b6080850152600581015460a08501520154910152565b858381928a516139dc81610289818961322b565b815201920193019290613970565b600160401b82116104c057805491808255828110613a0757505050565b60009182526020906020832093840193015b838110613a265750505050565b8083613a34600193546131f1565b80613a42575b505001613a19565b601f8082118514613a5957505081555b8338613a3a565b613a7290848452868420920160051c82018583016133aa565b81835555613a52565b91906104aa5760018060a01b038151166001600160601b0360a01b835416178255600160209081830151818501556002840191604084015181815191613ac183876139ea565b01600094855282852085915b838310613ca55750505050600385019160608501519283516001600160401b0394858211613c9157613b0382611c4785546131f1565b8490601f8311600114613c3257613b319291889183613ba65750508160011b916000199060031b1c19161790565b90555b60048601936080860151918251948511613c1e57613b5c85613b5688546131f1565b886133c1565b83601f8611600114613bb1575050928060c09593613b92936006989692613ba65750508160011b916000199060031b1c19161790565b90555b60a081015160058501550151910155565b015190503880610b61565b86835280832091959491939192601f198616915b828210613c07575050916006979593918560c098969410613bee575b505050811b019055613b95565b015160001960f88460031b161c19169055388080613be1565b808886978294978701518155019601940190613bc5565b634e487b7160e01b82526041600452602482fd5b8388528588208593929091601f1984168a5b89828210613c7b5750508411613c62575b505050811b019055613b34565b015160001960f88460031b161c19169055388080613c55565b8385015186558997909501949384019301613c44565b634e487b7160e01b87526041600452602487fd5b80519081516001600160401b038111613d6d57879181613cca8993613b5688546131f1565b82948b601f8311600114613d0a579185968192613cfb9492613ba65750508160011b916000199060031b1c19161790565b85555b01920192019190613acd565b50868c52838c209095601f1983168d5b818110613d565750908697848895949310613d3d575b505050811b018555613cfe565b015160001960f88460031b161c19169055388080613d30565b8289015184558d978d979401939283019201613d1a565b634e487b7160e01b89526041600452602489fd5b6000546001600160a01b03163303613d9557565b60405163118cdaa760e01b8152336004820152602490fd5b90808214613e8657613dbf81546131f1565b906001600160401b0382116104c057613ddc82611c4785546131f1565b600090601f8311600114613e1b57613e0c929160009183613e105750508160011b916000199060031b1c19161790565b9055565b015490503880610b61565b815260208082208483528183209291601f1985169083905b828210613e6d575050908460019594939210613e54575b505050811b019055565b015460001960f88460031b161c19169055388080613e4a565b8495819295850154815560018091019601940190613e33565b5050565b818114613e8657815491613e9e83836139ea565b6000526020600020906000526020600020906000905b838210613ec15750505050565b80613ece60019285613dad565b928101929181019101613eb456fea2646970667358221220374e0720fa24866d6ca9ea06949b83e0954bf768f1fa76ff10bb4fb4930409c264736f6c6343000819003360808060405234601557612019908161001b8239f35b600080fdfe6080604052600436101561001257600080fd5b6000803560e01c8063cdddf48314610a63578063ce0fdaa3146109ff5763ec4c84761461003e57600080fd5b346109fc576003196040368201126109f4576004356001600160401b0381116109f85761006f903690600401611e7c565b906001600160401b03602435116109f857604090602435360301126109f4576060608060405161009e81611db3565b8281528260208201528260408201528280820152015260405163d0f18f8560e01b8152602060048201526024356004013560221960243536030181121561096d57602435016001600160401b0360048201351161096d57600481013560051b3603602482011361096d57604060248301526004810135606483018190526001600160fb1b031061096d578060048092013560051b602482016084850137013560051b8101906024803501359160c219602435360301831215610969576024358301606083830301604484015260048101356084830152602481013560a48301526001600160401b0361019260448301611f05565b1660c48301526001600160401b036101ac60648301611f05565b1660e48301523681900390608481013560621983018112156109f0578161023e91016004810160c061010487015261022e6101fd6101ea8380611f19565b60606101448b01526101a48a0191611f4a565b9160446102266102106024870184611f19565b610143198c880381016101648e01529691611f4a565b940190611f19565b9187840301610184880152611f4a565b9260a482013592602219018312156109f0576020938461027861028593600489979688970101906101246083198287030191015280611f19565b9190928181520191611f4a565b03817307ad8508c9173dc845817472ca0484035abfa3c85afa9081156109e55784916109aa575b5015610971576024350160a4810135906022198136030182121561096d57016004810135906022198136030182121561096d57016004810135906001600160401b03821161096d57602401813603811361096d5761030b913691611e40565b908151820160208382031261096d576020830151906001600160401b0382116109695760a0828501820312610969576040519361034785611db3565b602083820101516001600160401b03811161092c57610370906020808501918685010101611f6b565b8552604083820101516001600160401b03811161092c5761039b906020808501918685010101611f6b565b6020860152606083820101516001600160401b03811161092c576103c9906020808501918685010101611f6b565b6040860152608083820101516001600160401b03811161092c5760208301603f828685010101121561092c576020818584010101519061040882611fad565b916104166040519384611e04565b80835260208301916020860160408360051b838a890101010111610928576040818887010101925b60408360051b838a890101010184106109305750505050606086015260a08382010151926001600160401b03841161092c5760208301603f858385010101121561092c576020848284010101519161049583611fad565b946104a36040519687611e04565b83865260208601926020860160408660051b8484870101010111610928576040828285010101935b60408660051b848487010101018510610794578a8a8a8a60808301528151604051610513602082816105068183019687815193849201611e9a565b8101038084520182611e04565b519020604051602081019061053360208286516105068187858b01611e9a565b5190200361075b577f370e7ade9bec795fec13333b0a8ecc7c0efa070361f5d3a01276a0dfd564834c6105758492604051918291604083526040830190611ebd565b600160208301520390a1604051918291602083526105d16105bb6105a5845160a0602088015260c0870190611ebd565b6020850151868203601f19016040880152611ebd565b6040840151858203601f19016060870152611ebd565b91606081015192601f19858203016080860152835180825260208201916020808360051b83010196019285915b8383106107265750505050506080015191601f198482030160a0850152825190818152602081016020808460051b840101950193915b8383106106415786860387f35b919395509193602080600192601f1985820301865288519061066d610220835190808452830190611ebd565b91838101518483015260408101516040830152606081015160608301526080810151608083015260a081015160a083015260c081015160c083015260e081015160e0830152610100808201519083015261012080820151908301526101408082015190830152610160808201519083015261018080820151908301526101a080820151908301526101c080820151908301526101e080820151908301526102008091015191015297019301930190928695949293610634565b9193975091939495602080610747600193601f198682030187528b51611ebd565b9901930193019092889796959492936105fe565b60405162461bcd60e51b815260206004820152601160248201527009ac2e8c6d040928840dad2e6dac2e8c6d607b1b6044820152606490fd5b84516001600160401b03811161092457610220858401850182018903601f1901126109245760405191826102208101106001600160401b036102208501111761090e5761022083016040526040828686890101010151906001600160401b03821161090a57604093856102408560e06020978f858e6108238f939b8e8e809e0191878787870101010101611f6b565b8952010101606081810151898801526080808301519b88019b909b5260a0808301519188019190915260c0808301519b88019b909b5291015190850152918a01890182016101009081015197840197909752878a0189019091016101208181015160e08501526101408083015198850198909852610160808301519185019190915261018080830151988501989098526101a080830151918501919091526101c080830151988501989098526101e08083015191850191909152610200808301519885019890985261022082015190840152015194810194909452928352950194016104cb565b8d80fd5b634e487b7160e01b600052604160045260246000fd5b8b80fd5b8980fd5b8680fd5b8351906001600160401b038211610924576020809161095c8960408096888f8f88019401010101611f6b565b815201940193905061043e565b8480fd5b8380fd5b60405162461bcd60e51b815260206004820152601160248201527024b73b30b634b21023222190383937b7b360791b6044820152606490fd5b90506020813d6020116109dd575b816109c560209383611e04565b8101031261096d5751801515810361096d57386102ac565b3d91506109b8565b6040513d86823e3d90fd5b8780fd5b5080fd5b8280fd5b80fd5b50346109fc5760203660031901126109fc576004356001600160401b0381116109f457610a5060208093610a3c63ffffffff943690600401611e7c565b908260405194838680955193849201611e9a565b8201908152030190205416604051908152f35b5060403660031901126109fc576004356001600160401b0381116109f457610a8f903690600401611e7c565b6024356001600160401b0381116109f857610aae903690600401611e7c565b9060405191606083018381106001600160401b03821117611d8857604052602a92602a81527f68747470733a2f2f6170692e637269636170692e636f6d2f76312f6d6174636860208201526917dcd8dbdc9958d85c9960b21b6040820152604051938491865b828110611d9c5750505080610b7b92673f6170696b65793d60c01b604a6056940152610b4a815180926020605286019101611e9a565b8101632669643d60e01b6052820152845190610b6c8285830160208901611e9a565b01036036810185520183611e04565b6040519161048083018381106001600160401b03821117611d885760405261045983527f7b226d617463684964223a202e646174612e69642c20226d617463684e616d6560208401527f223a202e646174612e6e616d652c20226d61746368537461747573223a202e6460408401527f6174612e7374617475732c20227465616d73223a202e646174612e7465616d7360608401527f2c2022706c61796572506572666f726d616e636573223a205b282e646174612e60808401527f73636f7265636172645b305d2e62617474696e675b5d207c207b22706c61796560a08401527f724964223a202e626174736d616e2e69642c20226e616d65223a202e6261747360c08401527f6d616e2e6e616d652c202272756e73223a202e722c202262616c6c73223a202e60e08401527f622c2022666f757273223a202e223473222c20227369786573223a202e2236736101008401527f222c2022737472696b6552617465223a202e73727d292c20282e646174612e736101208401527f636f7265636172645b305d2e626f776c696e675b5d207c207b22706c617965726101408401527f4964223a202e626f776c65722e69642c20226e616d65223a202e626f776c65726101608401527f2e6e616d652c20226f76657273223a202e6f2c20226d616964656e73223a202e6101808401527f6d2c20227769636b657473223a202e772c202272756e73436f6e6365646564226101a08401527f3a202e722c202265636f6e6f6d79223a202e65636f2c20227769646573223a206101c08401527f2e77642c20226e6f42616c6c73223a202e6e627d292c20282e646174612e73636101e08401527f6f7265636172645b315d2e62617474696e675b5d207c207b22706c61796572496102008401527f64223a202e626174736d616e2e69642c20226e616d65223a202e626174736d616102208401527f6e2e6e616d652c202272756e73223a202e722c202262616c6c73223a202e622c6102408401527f2022666f757273223a202e223473222c20227369786573223a202e223673222c6102608401527f2022737472696b6552617465223a202e73727d292c20282e646174612e73636f6102808401527f7265636172645b315d2e626f776c696e675b5d207c207b22706c6179657249646102a08401527f223a202e626f776c65722e69642c20226e616d65223a202e626f776c65722e6e6102c08401527f616d652c20226f76657273223a202e6f2c20226d616964656e73223a202e6d2c6102e08401527f20227769636b657473223a202e772c202272756e73436f6e6365646564223a206103008401527f2e722c202265636f6e6f6d79223a202e65636f2c20227769646573223a202e776103208401527f642c20226e6f42616c6c73223a202e6e627d292c20282e646174612e73636f726103408401527f65636172645b305d2e6361746368696e675b5d207c207b22706c6179657249646103608401527f223a202e636174636865722e69642c20226e616d65223a202e636174636865726103808401527f2e6e616d652c202263617463686573223a202e63617463682c202272756e6f756103a08401527f7473223a202e72756e6f75742c20227374756d70696e6773223a202e7374756d6103c08401527f7065647d292c20282e646174612e73636f7265636172645b315d2e63617463686103e08401527f696e675b5d207c207b22706c617965724964223a202e636174636865722e69646104008401527f2c20226e616d65223a202e636174636865722e6e616d652c20226361746368656104208401527f73223a202e63617463682c202272756e6f757473223a202e72756e6f75742c206104408401527f227374756d70696e6773223a202e7374756d7065647d295d7d00000000000000610460840152604051806106808101106001600160401b0361068083011117611d885761190191816106806055930160405261065681527f7b22636f6d706f6e656e7473223a205b7b22696e7465726e616c54797065223a60208201527f2022737472696e67222c20226e616d65223a20226d617463684964222c20227460408201527f797065223a2022737472696e67227d2c7b22696e7465726e616c54797065223a60608201527f2022737472696e67222c20226e616d65223a20226d617463684e616d65222c2060808201527f2274797065223a2022737472696e67227d2c7b22696e7465726e616c5479706560a08201527f223a2022737472696e67222c20226e616d65223a20226d61746368537461747560c08201527f73222c202274797065223a2022737472696e67227d2c7b22696e7465726e616c60e08201527f54797065223a2022737472696e675b5d222c20226e616d65223a20227465616d6101008201527f73222c202274797065223a2022737472696e675b5d227d2c7b22636f6d706f6e6101208201527f656e7473223a205b7b22696e7465726e616c54797065223a2022737472696e676101408201527f222c20226e616d65223a2022706c617965724964222c202274797065223a20226101608201527f737472696e67227d2c7b22696e7465726e616c54797065223a2022737472696e6101808201527f67222c20226e616d65223a20226e616d65222c202274797065223a20227374726101a08201527f696e67227d2c7b22696e7465726e616c54797065223a202275696e74323536226101c08201527f2c20226e616d65223a202272756e73222c202274797065223a202275696e74326101e08201527f3536227d2c7b22696e7465726e616c54797065223a202275696e74323536222c806102008301527f20226e616d65223a202262616c6c73222c202274797065223a202275696e7432610220830152806102408301527f20226e616d65223a2022666f757273222c202274797065223a202275696e7432610260830152806102808301527f20226e616d65223a20227369786573222c202274797065223a202275696e74326102a08301526102c08201527f20226e616d65223a2022737472696b6552617465222c202274797065223a20226102e08201527f75696e74323536227d2c7b22696e7465726e616c54797065223a202275696e74806103008301527f323536222c20226e616d65223a20226f76657273222c202274797065223a20226103208301526103408201527f323536222c20226e616d65223a20226d616964656e73222c202274797065223a6103608201527f202275696e74323536227d2c7b22696e7465726e616c54797065223a202275696103808201527f6e74323536222c20226e616d65223a20227769636b657473222c2022747970656103a08201527f223a202275696e74323536227d2c7b22696e7465726e616c54797065223a20226103c08201527f75696e74323536222c20226e616d65223a202272756e73436f6e6365646564226103e08201527f2c202274797065223a202275696e74323536227d2c7b22696e7465726e616c546104008201527f797065223a202275696e74323536222c20226e616d65223a202265636f6e6f6d6104208201527f79222c202274797065223a202275696e74323536227d2c7b22696e7465726e616104408201527f6c54797065223a202275696e74323536222c20226e616d65223a2022776964656104608201527f73222c202274797065223a202275696e74323536227d2c7b22696e7465726e616104808201527f6c54797065223a202275696e74323536222c20226e616d65223a20226e6f42616104a08201527f6c6c73222c202274797065223a202275696e74323536227d2c7b22696e7465726104c08201527f6e616c54797065223a202275696e74323536222c20226e616d65223a202263616104e08201527f7463686573222c202274797065223a202275696e74323536227d2c7b22696e746105008201527f65726e616c54797065223a202275696e74323536222c20226e616d65223a20226105208201527f72756e6f757473222c202274797065223a202275696e74323536227d2c7b22696105408201527f6e7465726e616c54797065223a202275696e74323536222c20226e616d65223a6105608201527f20227374756d70696e6773222c202274797065223a202275696e74323536227d6105808201527f2c7b22696e7465726e616c54797065223a202275696e74323536222c20226e616105a08201527f6d65223a202266616e74617379506f696e7473222c202274797065223a2022756105c08201527f696e74323536227d5d2c2022696e7465726e616c54797065223a2022737472756105e08201527f637420506c61796572506572666f726d616e63655b5d222c20226e616d65223a6106008201527f2022706c61796572506572666f726d616e636573222c202274797065223a20226106208201527f7475706c655b5d227d5d2c20226e616d65223a20224d6174636853636f72656361064082015275617264222c202274797065223a20227475706c65227d60501b610660820152604051958692683d913ab936111d101160b91b6020850152611880815180926020602988019101611e9a565b830174111610113837b9ba383937b1b2b9b9a538911d101160591b60298201526118b4825180936020603e85019101611e9a565b01741116101130b134afb9b4b3b730ba3ab932911d101160591b603e8201526118e7825180936020605385019101611e9a565b0161227d60f01b6053820152036035810185520183611e04565b61198361192c60405161191381611dce565b60078152664a736f6e41706960c81b6020820152611ee2565b61197561195460405161193e81611dce565b60048152632ba2a11960e11b6020820152611ee2565b94604051958693602085015260408401526060808401526080830190611ebd565b03601f198101845283611e04565b604051602081019060208252601b60408201527f46646352657175657374466565436f6e66696775726174696f6e7300000000006060820152606081526119c981611de9565b51902060405190630ac9aa5160e11b90818352600483015273ad67fe66660fb8dfe9d6b1b4240d8650e30f601991602081602481865afa908115611caa578691611d69575b50604051630507923b60e11b81526020600482018190526001600160a01b039691928390818981611a426024820188611ebd565b0392165afa918215611d5e578792611d2a575b50813410611cd45786906040516020810190602082526006604082015265233231a43ab160d11b606082015260608152611a8e81611de9565b519020604051908582526004820152602081602481895afa8015611c425788918491611cb5575b5016803b156109f857611ae69160405194858094819363188e3cd560e21b8352602060048401526024830190611ebd565b03925af18015611caa57611c7a575b506020906024604051838101908482526013604082015272233630b932a9bcb9ba32b6b9a6b0b730b3b2b960691b606082015260608152611b3581611de9565b519020916040519485938492835260048301525afa80156109e5576020918591611c4d575b50600460405180958193634134520b60e01b8352165afa918215611c42578392611bff575b50611bef7f2097417e917c4f7ffa2bdd359b5795706a6452c2a769292a59bfa23d109c9ca99163ffffffff6020958660405180928551611bc28184868a01611e9a565b8201908152030190209416938463ffffffff19825416179055604051918291604083526040830190611ebd565b84868301520390a1604051908152f35b9091506020813d602011611c3a575b81611c1b60209383611e04565b810103126109f8575163ffffffff811681036109f85790611bef611b7f565b3d9150611c0e565b6040513d85823e3d90fd5b611c6d9150823d8411611c73575b611c658183611e04565b810190611fc4565b38611b5a565b503d611c5b565b6001600160401b038196929611611c9657604052936020611af5565b634e487b7160e01b82526041600452602482fd5b6040513d88823e3d90fd5b611cce915060203d602011611c7357611c658183611e04565b38611ab5565b60405162461bcd60e51b815260206004820152602860248201527f496e73756666696369656e742066656520666f72206174746573746174696f6e604482015267081c995c5d595cdd60c21b6064820152608490fd5b9091506020813d602011611d56575b81611d4660209383611e04565b8101031261092c57519038611a55565b3d9150611d39565b6040513d89823e3d90fd5b611d82915060203d602011611c7357611c658183611e04565b38611a0e565b634e487b7160e01b85526041600452602485fd5b602082820181015188830182015287945001610b14565b60a081019081106001600160401b0382111761090e57604052565b604081019081106001600160401b0382111761090e57604052565b608081019081106001600160401b0382111761090e57604052565b90601f801991011681019081106001600160401b0382111761090e57604052565b6001600160401b03811161090e57601f01601f191660200190565b929192611e4c82611e25565b91611e5a6040519384611e04565b829481845281830111611e77578281602093846000960137010152565b600080fd5b9080601f83011215611e7757816020611e9793359101611e40565b90565b60005b838110611ead5750506000910152565b8181015183820152602001611e9d565b90602091611ed681518092818552858086019101611e9a565b601f01601f1916010190565b602081519101519060208110611ef6575090565b6000199060200360031b1b1690565b35906001600160401b0382168203611e7757565b9035601e1982360301811215611e775701602081359101916001600160401b038211611e77578136038313611e7757565b908060209392818452848401376000828201840152601f01601f1916010190565b81601f82011215611e77578051611f8181611e25565b92611f8f6040519485611e04565b81845260208284010111611e7757611e979160208085019101611e9a565b6001600160401b03811161090e5760051b60200190565b90816020910312611e7757516001600160a01b0381168103611e77579056fea264697066735822122055d79ff0e56d748ececc070f495d98c7d7f306f45c250d83540eb042200a9e7064736f6c63430008190033",
    "linkReferences": {
      "src/ScoringEngine.sol": {
        "ScoringEngine": [
          {
            "start": 8005,
            "length": 20
          },
          {
            "start": 8770,
            "length": 20
          }
        ]
      }
    }
  },
  "methodIdentifiers": {
    "contestPlayerPerformances(bytes32,uint256)": "ba53fd8d",
    "contestPrizeBreakdowns(bytes32,uint256)": "ee413bea",
    "contestTeams(bytes32,uint256)": "68432bfe",
    "contests(bytes32)": "ea269c84",
    "createContest(string,string,uint256,uint256,uint256)": "10dd371c",
    "defaultPrizeBreakdown(uint256)": "447ab022",
    "distributePrizes(bytes32)": "2ecacb2e",
    "fdcDataConsumer()": "8a465516",
    "finalizeScores(bytes32,(bytes32[],(bytes32,bytes32,uint64,uint64,(string,string,string),(bytes))))": "5bb0d0db",
    "getAllContestTeams(bytes32)": "a7ce04fb",
    "getAllContests()": "03cfb847",
    "getAllContestsForMatch(string)": "cbe17bcf",
    "getContest(bytes32)": "f22d36a2",
    "getContestCount()": "64c3c166",
    "getMatchContests(string)": "a0505c35",
    "getPlayerPerformances(bytes32)": "64877505",
    "getUserTeam(bytes32,address)": "6753c589",
    "matchContestCount(string)": "be01e9b7",
    "matchContests(string,uint256)": "87e7d22a",
    "owner()": "8da5cb5b",
    "renounceOwnership()": "715018a6",
    "requestMatchData(bytes32)": "051f6f84",
    "setContestPrizeBreakdown(bytes32,(uint256,uint256)[])": "24d07651",
    "setDefaultPrizeBreakdown((uint256,uint256)[])": "eaa150d3",
    "submitTeam(bytes32,string[],string,string)": "85fb8ab9",
    "transferOwnership(address)": "f2fde38b",
    "updateContestStatus(bytes32,uint8)": "6e5e3f5e",
    "updateCricketApiKey(string)": "8facd93f",
    "userContestEntries(bytes32,address)": "a1e516fd"
  },
  "id": 109
}