{"abi":[{"type":"constructor","inputs":[{"name":"_cricketApiKey","type":"string","internalType":"string"}],"stateMutability":"nonpayable"},{"type":"function","name":"contestPlayerPerformances","inputs":[{"name":"","type":"bytes32","internalType":"bytes32"},{"name":"","type":"uint256","internalType":"uint256"}],"outputs":[{"name":"playerId","type":"string","internalType":"string"},{"name":"runs","type":"uint256","internalType":"uint256"},{"name":"balls","type":"uint256","internalType":"uint256"},{"name":"fours","type":"uint256","internalType":"uint256"},{"name":"sixes","type":"uint256","internalType":"uint256"},{"name":"strikeRate","type":"uint256","internalType":"uint256"},{"name":"overs","type":"uint256","internalType":"uint256"},{"name":"maidens","type":"uint256","internalType":"uint256"},{"name":"wickets","type":"uint256","internalType":"uint256"},{"name":"runsConceded","type":"uint256","internalType":"uint256"},{"name":"economy","type":"uint256","internalType":"uint256"},{"name":"wides","type":"uint256","internalType":"uint256"},{"name":"noBalls","type":"uint256","internalType":"uint256"},{"name":"catches","type":"uint256","internalType":"uint256"},{"name":"runouts","type":"uint256","internalType":"uint256"},{"name":"stumpings","type":"uint256","internalType":"uint256"},{"name":"fantasyPoints","type":"uint256","internalType":"uint256"}],"stateMutability":"view"},{"type":"function","name":"contestPrizeBreakdowns","inputs":[{"name":"","type":"bytes32","internalType":"bytes32"},{"name":"","type":"uint256","internalType":"uint256"}],"outputs":[{"name":"rank","type":"uint256","internalType":"uint256"},{"name":"percentage","type":"uint256","internalType":"uint256"}],"stateMutability":"view"},{"type":"function","name":"contestTeams","inputs":[{"name":"","type":"bytes32","internalType":"bytes32"},{"name":"","type":"uint256","internalType":"uint256"}],"outputs":[{"name":"userAddress","type":"address","internalType":"address"},{"name":"contestId","type":"bytes32","internalType":"bytes32"},{"name":"captainId","type":"string","internalType":"string"},{"name":"viceCaptainId","type":"string","internalType":"string"},{"name":"totalPoints","type":"uint256","internalType":"uint256"},{"name":"rank","type":"uint256","internalType":"uint256"}],"stateMutability":"view"},{"type":"function","name":"contests","inputs":[{"name":"","type":"bytes32","internalType":"bytes32"}],"outputs":[{"name":"contestId","type":"bytes32","internalType":"bytes32"},{"name":"matchId","type":"string","internalType":"string"},{"name":"ipfsHash","type":"string","internalType":"string"},{"name":"entryFee","type":"uint256","internalType":"uint256"},{"name":"startTime","type":"uint256","internalType":"uint256"},{"name":"endTime","type":"uint256","internalType":"uint256"},{"name":"prizePool","type":"uint256","internalType":"uint256"},{"name":"participantCount","type":"uint256","internalType":"uint256"},{"name":"status","type":"uint8","internalType":"enum ContestData.MatchStatus"},{"name":"scoresFinalized","type":"bool","internalType":"bool"}],"stateMutability":"view"},{"type":"function","name":"createContest","inputs":[{"name":"matchId","type":"string","internalType":"string"},{"name":"ipfsHash","type":"string","internalType":"string"},{"name":"entryFee","type":"uint256","internalType":"uint256"},{"name":"startTime","type":"uint256","internalType":"uint256"},{"name":"endTime","type":"uint256","internalType":"uint256"}],"outputs":[{"name":"","type":"bytes32","internalType":"bytes32"}],"stateMutability":"nonpayable"},{"type":"function","name":"defaultPrizeBreakdown","inputs":[{"name":"","type":"uint256","internalType":"uint256"}],"outputs":[{"name":"rank","type":"uint256","internalType":"uint256"},{"name":"percentage","type":"uint256","internalType":"uint256"}],"stateMutability":"view"},{"type":"function","name":"distributePrizes","inputs":[{"name":"contestId","type":"bytes32","internalType":"bytes32"}],"outputs":[],"stateMutability":"nonpayable"},{"type":"function","name":"finalizeScores","inputs":[{"name":"contestId","type":"bytes32","internalType":"bytes32"},{"name":"proof","type":"tuple","internalType":"struct IJsonApi.Proof","components":[{"name":"merkleProof","type":"bytes32[]","internalType":"bytes32[]"},{"name":"data","type":"tuple","internalType":"struct IJsonApi.Response","components":[{"name":"attestationType","type":"bytes32","internalType":"bytes32"},{"name":"sourceId","type":"bytes32","internalType":"bytes32"},{"name":"votingRound","type":"uint64","internalType":"uint64"},{"name":"lowestUsedTimestamp","type":"uint64","internalType":"uint64"},{"name":"requestBody","type":"tuple","internalType":"struct IJsonApi.RequestBody","components":[{"name":"url","type":"string","internalType":"string"},{"name":"postprocessJq","type":"string","internalType":"string"},{"name":"abi_signature","type":"string","internalType":"string"}]},{"name":"responseBody","type":"tuple","internalType":"struct IJsonApi.ResponseBody","components":[{"name":"abi_encoded_data","type":"bytes","internalType":"bytes"}]}]}]}],"outputs":[],"stateMutability":"nonpayable"},{"type":"function","name":"getAllContestTeams","inputs":[{"name":"contestId","type":"bytes32","internalType":"bytes32"}],"outputs":[{"name":"","type":"tuple[]","internalType":"struct ContestData.UserTeam[]","components":[{"name":"userAddress","type":"address","internalType":"address"},{"name":"contestId","type":"bytes32","internalType":"bytes32"},{"name":"playerIds","type":"string[]","internalType":"string[]"},{"name":"captainId","type":"string","internalType":"string"},{"name":"viceCaptainId","type":"string","internalType":"string"},{"name":"totalPoints","type":"uint256","internalType":"uint256"},{"name":"rank","type":"uint256","internalType":"uint256"}]}],"stateMutability":"view"},{"type":"function","name":"getAllContests","inputs":[],"outputs":[{"name":"","type":"bytes32[]","internalType":"bytes32[]"}],"stateMutability":"view"},{"type":"function","name":"getAllContestsForMatch","inputs":[{"name":"matchId","type":"string","internalType":"string"}],"outputs":[{"name":"","type":"bytes32[]","internalType":"bytes32[]"}],"stateMutability":"view"},{"type":"function","name":"getContest","inputs":[{"name":"contestId","type":"bytes32","internalType":"bytes32"}],"outputs":[{"name":"","type":"tuple","internalType":"struct ContestData.Contest","components":[{"name":"contestId","type":"bytes32","internalType":"bytes32"},{"name":"matchId","type":"string","internalType":"string"},{"name":"ipfsHash","type":"string","internalType":"string"},{"name":"entryFee","type":"uint256","internalType":"uint256"},{"name":"startTime","type":"uint256","internalType":"uint256"},{"name":"endTime","type":"uint256","internalType":"uint256"},{"name":"prizePool","type":"uint256","internalType":"uint256"},{"name":"participantCount","type":"uint256","internalType":"uint256"},{"name":"status","type":"uint8","internalType":"enum ContestData.MatchStatus"},{"name":"scoresFinalized","type":"bool","internalType":"bool"}]}],"stateMutability":"view"},{"type":"function","name":"getContestCount","inputs":[],"outputs":[{"name":"","type":"uint256","internalType":"uint256"}],"stateMutability":"view"},{"type":"function","name":"getMatchContests","inputs":[{"name":"matchId","type":"string","internalType":"string"}],"outputs":[{"name":"","type":"bytes32[]","internalType":"bytes32[]"}],"stateMutability":"view"},{"type":"function","name":"getPlayerPerformances","inputs":[{"name":"contestId","type":"bytes32","internalType":"bytes32"}],"outputs":[{"name":"","type":"tuple[]","internalType":"struct ContestData.PlayerPerformance[]","components":[{"name":"playerId","type":"string","internalType":"string"},{"name":"runs","type":"uint256","internalType":"uint256"},{"name":"balls","type":"uint256","internalType":"uint256"},{"name":"fours","type":"uint256","internalType":"uint256"},{"name":"sixes","type":"uint256","internalType":"uint256"},{"name":"strikeRate","type":"uint256","internalType":"uint256"},{"name":"overs","type":"uint256","internalType":"uint256"},{"name":"maidens","type":"uint256","internalType":"uint256"},{"name":"wickets","type":"uint256","internalType":"uint256"},{"name":"runsConceded","type":"uint256","internalType":"uint256"},{"name":"economy","type":"uint256","internalType":"uint256"},{"name":"wides","type":"uint256","internalType":"uint256"},{"name":"noBalls","type":"uint256","internalType":"uint256"},{"name":"catches","type":"uint256","internalType":"uint256"},{"name":"runouts","type":"uint256","internalType":"uint256"},{"name":"stumpings","type":"uint256","internalType":"uint256"},{"name":"fantasyPoints","type":"uint256","internalType":"uint256"}]}],"stateMutability":"view"},{"type":"function","name":"getUserTeam","inputs":[{"name":"contestId","type":"bytes32","internalType":"bytes32"},{"name":"userAddress","type":"address","internalType":"address"}],"outputs":[{"name":"","type":"tuple","internalType":"struct ContestData.UserTeam","components":[{"name":"userAddress","type":"address","internalType":"address"},{"name":"contestId","type":"bytes32","internalType":"bytes32"},{"name":"playerIds","type":"string[]","internalType":"string[]"},{"name":"captainId","type":"string","internalType":"string"},{"name":"viceCaptainId","type":"string","internalType":"string"},{"name":"totalPoints","type":"uint256","internalType":"uint256"},{"name":"rank","type":"uint256","internalType":"uint256"}]}],"stateMutability":"view"},{"type":"function","name":"matchContestCount","inputs":[{"name":"","type":"string","internalType":"string"}],"outputs":[{"name":"","type":"uint256","internalType":"uint256"}],"stateMutability":"view"},{"type":"function","name":"matchContests","inputs":[{"name":"","type":"string","internalType":"string"},{"name":"","type":"uint256","internalType":"uint256"}],"outputs":[{"name":"","type":"bytes32","internalType":"bytes32"}],"stateMutability":"view"},{"type":"function","name":"owner","inputs":[],"outputs":[{"name":"","type":"address","internalType":"address"}],"stateMutability":"view"},{"type":"function","name":"renounceOwnership","inputs":[],"outputs":[],"stateMutability":"nonpayable"},{"type":"function","name":"requestMatchData","inputs":[{"name":"contestId","type":"bytes32","internalType":"bytes32"},{"name":"abiEncodedRequest","type":"bytes","internalType":"bytes"}],"outputs":[],"stateMutability":"payable"},{"type":"function","name":"setContestPrizeBreakdown","inputs":[{"name":"contestId","type":"bytes32","internalType":"bytes32"},{"name":"prizeBreakdown","type":"tuple[]","internalType":"struct ContestData.PrizeBreakdown[]","components":[{"name":"rank","type":"uint256","internalType":"uint256"},{"name":"percentage","type":"uint256","internalType":"uint256"}]}],"outputs":[],"stateMutability":"nonpayable"},{"type":"function","name":"setDefaultPrizeBreakdown","inputs":[{"name":"prizeBreakdown","type":"tuple[]","internalType":"struct ContestData.PrizeBreakdown[]","components":[{"name":"rank","type":"uint256","internalType":"uint256"},{"name":"percentage","type":"uint256","internalType":"uint256"}]}],"outputs":[],"stateMutability":"nonpayable"},{"type":"function","name":"submitTeam","inputs":[{"name":"contestId","type":"bytes32","internalType":"bytes32"},{"name":"playerIds","type":"string[]","internalType":"string[]"},{"name":"captainId","type":"string","internalType":"string"},{"name":"viceCaptainId","type":"string","internalType":"string"}],"outputs":[],"stateMutability":"payable"},{"type":"function","name":"transferOwnership","inputs":[{"name":"newOwner","type":"address","internalType":"address"}],"outputs":[],"stateMutability":"nonpayable"},{"type":"function","name":"updateContestStatus","inputs":[{"name":"contestId","type":"bytes32","internalType":"bytes32"},{"name":"status","type":"uint8","internalType":"enum ContestData.MatchStatus"}],"outputs":[],"stateMutability":"nonpayable"},{"type":"function","name":"updateCricketApiKey","inputs":[{"name":"_cricketApiKey","type":"string","internalType":"string"}],"outputs":[],"stateMutability":"nonpayable"},{"type":"function","name":"userContestEntries","inputs":[{"name":"","type":"bytes32","internalType":"bytes32"},{"name":"","type":"address","internalType":"address"}],"outputs":[{"name":"","type":"uint256","internalType":"uint256"}],"stateMutability":"view"},{"type":"event","name":"ContestCreated","inputs":[{"name":"contestId","type":"bytes32","indexed":true,"internalType":"bytes32"},{"name":"matchId","type":"string","indexed":false,"internalType":"string"},{"name":"entryFee","type":"uint256","indexed":false,"internalType":"uint256"}],"anonymous":false},{"type":"event","name":"OwnershipTransferred","inputs":[{"name":"previousOwner","type":"address","indexed":true,"internalType":"address"},{"name":"newOwner","type":"address","indexed":true,"internalType":"address"}],"anonymous":false},{"type":"event","name":"PrizesDistributed","inputs":[{"name":"contestId","type":"bytes32","indexed":true,"internalType":"bytes32"},{"name":"winners","type":"address[]","indexed":false,"internalType":"address[]"},{"name":"amounts","type":"uint256[]","indexed":false,"internalType":"uint256[]"}],"anonymous":false},{"type":"event","name":"ScoresFinalized","inputs":[{"name":"contestId","type":"bytes32","indexed":true,"internalType":"bytes32"},{"name":"matchId","type":"string","indexed":false,"internalType":"string"}],"anonymous":false},{"type":"event","name":"TeamSubmitted","inputs":[{"name":"contestId","type":"bytes32","indexed":true,"internalType":"bytes32"},{"name":"user","type":"address","indexed":true,"internalType":"address"},{"name":"teamIndex","type":"uint256","indexed":false,"internalType":"uint256"}],"anonymous":false},{"type":"error","name":"OwnableInvalidOwner","inputs":[{"name":"owner","type":"address","internalType":"address"}]},{"type":"error","name":"OwnableUnauthorizedAccount","inputs":[{"name":"account","type":"address","internalType":"address"}]}],"bytecode":{"object":"0x6080604052346102a95761468b80380380610019816102cd565b92833981019060209081818403126102a95780516001600160401b03918282116102a9570190601f938085840112156102a957825182811161026657601f1993610068828801861687016102cd565b928284528683830101116102a957859060005b83811061029557505060009183010152331561027c5760008054336001600160a01b0319821681178355916001600160a01b03909116907f8be0079c531659141344cd1fd0a4f28419497f9722a3daafe3b4186f6b6457e09080a380519182116102665760019283548481811c9116801561025c575b8682101461024657868111610200575b50849583116001146101995750908061017f9561014c949360009261018e575b5050600019600383901b1c191690821b1781555b61013d6102ae565b908152611388838201526102f2565b6101676101576102ae565b60028152610bb8838201526102f2565b6107d06101726102ae565b91600383528201526102f2565b604051614341908161034a8239f35b015190503880610121565b60008481528581209692918416905b8181106101eb5750958493919261014c95938361017f99106101d2575b505050811b018155610135565b015160001960f88460031b161c191690553880806101c5565b828401518855968501969286019286016101a8565b84600052856000208780860160051c82019288871061023d575b0160051c019085905b828110610231575050610101565b60008155018590610223565b9250819261021a565b634e487b7160e01b600052602260045260246000fd5b90607f16906100f1565b634e487b7160e01b600052604160045260246000fd5b604051631e4fbdf760e01b815260006004820152602490fd5b81810183015185820184015287920161007b565b600080fd5b60408051919082016001600160401b0381118382101761026657604052565b6040519190601f01601f191682016001600160401b0381118382101761026657604052565b600b5468010000000000000000811015610266576001810180600b55811015610333576020600191600b6000528160002090831b0192805184550151910155565b634e487b7160e01b600052603260045260246000fdfe61010080604052600436101561001457600080fd5b600090813560e01c90816303cfb847146132995750806310dd371c14612bed57806324d0765114612a0d5780632ecacb2e1461277c578063447ab022146127515780635b8acf35146123cb5780635bb0d0db1461182357806364877505146115d857806364c3c166146115ba5780636753c5891461149c57806368432bfe146113e95780636e5e3f5e1461138c578063715018a61461133257806385fb8ab914610d2157806387e7d22a14610ca55780638da5cb5b14610c7e5780638facd93f14610af2578063a0505c3514610a61578063a1e516fd14610a1a578063a7ce04fb14610945578063ba53fd8d146107fe578063be01e9b7146107b4578063cbe17bcf14610647578063ea269c8414610569578063eaa150d3146103ec578063ee413bea146103a6578063f22d36a2146101ea5763f2fde38b1461015657600080fd5b346101e75760203660031901126101e7576004356001600160a01b03818116918290036101e257610185614191565b81156101c957600054826001600160601b0360a01b821617600055167f8be0079c531659141344cd1fd0a4f28419497f9722a3daafe3b4186f6b6457e0600080a380f35b604051631e4fbdf760e01b815260048101849052602490fd5b600080fd5b80fd5b50346101e7576020806003193601126103a2576040519161020a83613349565b808352606082840152606060408401528060608401528060808401528060a08401528060c08401528060e08401526040610100918083860152806101208096015260043581526003845220926040519361026385613349565b805485526040516102828161027b8160018601613657565b03826133b7565b848601908152604051926102a48461029d8160028701613657565b03856133b7565b60408701938452600383015494606088019586526004840154906080890191825260058501549460a08a01958652600681015460c08b01908152600860078301549260e08d0193845201549660ff881694848d0195600481101561038c576103819860ff8f8a90610359948b52019b60081c1615158b526040519e8f9e8f9181835251910152519a8d6103456101409d8e60408401526101608301906134f1565b9151906060601f19828503019101526134f1565b9a5160808d01525160a08c01525160c08b01525160e08a015251908801525190860190613738565b511515908301520390f35b634e487b7160e01b600052602160045260246000fd5b5080fd5b50346101e7576103b5366135eb565b91908152600a602052604081209081548310156101e75760406103d884846134b2565b506001815491015482519182526020820152f35b50346101e7576020806003193601126103a2576004356001600160401b0381116105655761041e903690600401613448565b91610427614191565b83845b848110610543575061271061043f9114613821565b600b92600b546000600b55806104ce575b50845b81811061045e578580f35b610469818386613804565b908554600160401b8110156104b8576104886001918281018955613478565b9190916104a2578584600195358455013591015501610453565b634e487b7160e01b600052600060045260246000fd5b634e487b7160e01b600052604160045260246000fd5b60016001600160ff1b038216820361052d57600b6000527f0175b7a638427703f0dbe7bb9bbf987a2551717b34e79f33b5b1008d1fa01db99160011b8201915b82811061051c575050610450565b60008082558282015560020161050e565b634e487b7160e01b600052601160045260246000fd5b9061055e60019184610556858989613804565b013590613814565b910161042a565b8280fd5b50346101e75760203660031901126101e75760409060043581526003602052208054604051916105a7836105a08160018501613657565b03846133b7565b60ff6040516105bd8161027b8160028701613657565b6003830154926004810154600582015460068301549161060d60086007860154950154956105ff6040519b8c809c6020610140928392815201528c01906134f1565b908a820360408c01526134f1565b966060890152608088015260a087015260c086015260e08501526106376101008501838316613738565b60081c1615156101208301520390f35b50346101e7576020806003193601126103a2576004356001600160401b038111610565578161067d61069092369060040161342a565b81604051938285809451938492016134ce565b8101600981520301902090604051808383829554938481520190865283862092865b8582821061079e575050506106c9925003836133b7565b8151906106d5826136ed565b916106e360405193846133b7565b8083526106f2601f19916136ed565b0190369083013760028054845b845181101561078c57610712818661389d565b5190600019820182811161077857831115610762577f405787fa12a823e0f2b7631cc41b3ba8828b3321ca811111fa75cd3aa3bb5acd60019285600052015461075b828761389d565b52016106ff565b634e487b7160e01b600052603260045260246000fd5b634e487b7160e01b88526011600452602488fd5b6040518061079a868261330d565b0390f35b85548452600195860195889550930192016106b2565b50346101e75760203660031901126101e757600435906001600160401b0382116101e75760206107eb8161067d366004870161342a565b8101600881520301902054604051908152f35b50346101e75761080d366135eb565b90825260056020526040822080548210156105655761082c925061371c565b5060405161083e8161027b8185613657565b6001820154608052600282015460a052600382015460e05260048201549160058101546006820154600783015460088401546009850154600a86015490600b87015492600c88015494600d89015496600e8a0154986108b96010600f8d01549c01549c60405160c0526102208060c0515260c05101906134f1565b9c608051602060c051015260a051604060c051015260e051606060c0510152608060c051015260a060c051015260c08051015260e060c051015261010060c051015261012060c051015261014060c051015261016060c051015261018060c05101526101a060c05101526101c060c05101526101e060c051015261020060c051015260c051900360c051f35b50346101e7576020806003193601126103a2579060043581526004825260408120805491610972836136ed565b9261098060405194856133b7565b8084528484018093835285832083915b8383106109f55750505050604051928484019085855251809152604084019460408260051b8601019392955b8287106109c95785850386f35b9091929382806109e5600193603f198a8203018652885161352c565b96019201960195929190926109bc565b600788600192610a08859b9a989b613d3b565b81520192019201919096939596610990565b50346101e75760403660031901126101e7576040610a36613516565b9160043581526006602052209060018060a01b03166000526020526020604060002054604051908152f35b50346101e7576020806003193601126103a2576004356001600160401b038111610565578161067d610a9792369060040161342a565b81016007815203019020916040518092808554928381520194835280832092905b828210610adb5761079a85610acf818903826133b7565b6040519182918261330d565b835486529485019460019384019390910190610ab8565b50346101e75760209060206003193601126101e7576001600160401b039160043583811161056557610b2890369060040161342a565b92610b31614191565b8351908111610c6a57600191610b47835461361d565b601f8111610c11575b50602090601f8311600114610b94575081908495610b84949592610b89575b50508160011b916000199060031b1c19161790565b905580f35b015190503880610b6f565b838552601f198316957fb10e2d527612073b26eecdfd717e6a320cf44b4afac2b0732d9fcbe2b7fa0cf6929186905b888210610bfa5750508385969710610be1575b505050811b01905580f35b015160001960f88460031b161c19169055388080610bd6565b808785968294968601518155019501930190610bc3565b610c5a90846000527fb10e2d527612073b26eecdfd717e6a320cf44b4afac2b0732d9fcbe2b7fa0cf6601f850160051c81019160208610610c60575b601f0160051c0190613745565b38610b50565b9091508190610c4d565b634e487b7160e01b83526041600452602483fd5b50346101e757806003193601126101e757546040516001600160a01b039091168152602090f35b50346101e75760403660031901126101e7576004356001600160401b0381116103a257610cd690369060040161342a565b90610cf360206024359381604051938285809451938492016134ce565b810160078152030190209081548310156101e7576020610d138484613704565b90546040519160031b1c8152f35b5060803660031901126101e7576001600160401b03602435818111610565573660238201121561056557806004013590610d5a826136ed565b91610d6860405193846133b7565b80835260051b81016024016020830136821161132e5760248301905b82821061130257505050506044358281116112fe57610da790369060040161342a565b916064359081116112fe57610dc090369060040161342a565b906004358452600360205260408420926004840154610de08115156137bf565b4210156112b9576003840154341061127b5760043585526006602052604085203360005260205260406000205461123657600b8251036111e757849385865b8451811015610ef557610e32818661389d565b51604051610e5d60208281610e5081830196878151938492016134ce565b81010380845201826133b7565b5190206040516020810190610e7f60208281610e508b878151938492016134ce565b51902014610eec575b610e92818661389d565b51604051610eb060208281610e5081830196878151938492016134ce565b5190206040516020810190610ed260208281610e508d878151938492016134ce565b51902014610ee3575b600101610e1f565b60019150610edb565b60019650610e88565b509094939293156111ac5715611167576040516020810190610f226020828551610e508187858a016134ce565b5190206040516020810190610f426020828751610e508187858c016134ce565b5190201461110f5760405192610f5784613381565b33845260043560208501526040840152606083015260808201528260a08201528260c08201526004358352600460205260408320805490600160401b8210156110fb5781610fae916001610fb49594018155613601565b90613ea4565b6004358252600460205260408220546006602052604083203360005260205260406000205560078101610fe781546137b0565b9055600381015490600a8202828104600a14831517156110e7578380938193611024600661101a60648697048095613d2e565b9201918254613814565b905581546001600160a01b03165af161103b61386d565b50156110a2576004803582526020526040812054600019810190811161108e5760405190815233907faca0adc08d5c94504856fb3b42c26640bd89ec72c1f2fe87d1458b7ac6b375a2602060043592a380f35b634e487b7160e01b82526011600452602482fd5b60405162461bcd60e51b815260206004820152601960248201527f41646d696e20666565207472616e73666572206661696c6564000000000000006044820152606490fd5b634e487b7160e01b84526011600452602484fd5b634e487b7160e01b85526041600452602485fd5b60405162461bcd60e51b815260206004820152602a60248201527f4361707461696e20616e6420766963652d6361707461696e206d75737420626560448201526908191a5999995c995b9d60b21b6064820152608490fd5b60405162461bcd60e51b815260206004820152601860248201527f566963652d6361707461696e206e6f7420696e207465616d00000000000000006044820152606490fd5b60405162461bcd60e51b81526020600482015260136024820152724361707461696e206e6f7420696e207465616d60681b6044820152606490fd5b60405162461bcd60e51b815260206004820152602160248201527f5465616d206d75737420686176652065786163746c7920313120706c617965726044820152607360f81b6064820152608490fd5b60405162461bcd60e51b815260206004820152601860248201527f416c7265616479207375626d69747465642061207465616d00000000000000006044820152606490fd5b60405162461bcd60e51b8152602060048201526016602482015275496e73756666696369656e7420656e7472792066656560501b6044820152606490fd5b60405162461bcd60e51b815260206004820152601b60248201527f436f6e746573742068617320616c7265616479207374617274656400000000006044820152606490fd5b8380fd5b813586811161132a5760209161131f83926024369189010161342a565b815201910190610d84565b8780fd5b8580fd5b50346101e757806003193601126101e75761134b614191565b600080546001600160a01b0319811682556001600160a01b03167f8be0079c531659141344cd1fd0a4f28419497f9722a3daafe3b4186f6b6457e08280a380f35b50346101e75760403660031901126101e7576004356024356004811015610565576113e6916113b9614191565b80845260036020526113d3600460408620015415156137bf565b8352600360205260086040842001613798565b80f35b50346101e7576113f8366135eb565b9082526004602052604082208054821015610565576114179250613601565b5060018060a01b0381541660018201549160405161143c8161027b8160038601613657565b61148d6040516114538161027b8160048801613657565b61147f60066005860154950154936040519788978852602088015260c0604088015260c08701906134f1565b9085820360608701526134f1565b91608084015260a08301520390f35b50346101e75760403660031901126101e7576004356114b9613516565b91604051926114c784613381565b8184528160c0602095828782015260606040820152606080820152606060808201528260a0820152015282825260068452604082209060018060a01b0316600052835260406000205491821561156b578152600483526040812090600019830192831161155757506115429161153c91613601565b50613d3b565b9061079a60405192828493845283019061352c565b634e487b7160e01b81526011600452602490fd5b60405162461bcd60e51b815260048101859052602160248201527f5573657220686173206e6f7420656e7465726564207468697320636f6e7465736044820152601d60fa1b6064820152608490fd5b50346101e757806003193601126101e7576020600254604051908152f35b50346101e7576020806003193601126103a2579060043581526005906005835260408120908154611608816136ed565b9361161660405195866133b7565b81855285850190819484528684209084925b848410611742575050505050604051928484019085855251809152604084019460408260051b8601019392955b8287106116625785850386f35b909192938280600192603f1989820301855287519061168b6102208351908084528301906134f1565b91838101518483015260408101516040830152606080820151908301526080808201519083015260a0808201519083015260c0808201519083015260e081015160e0830152610100808201519083015261012080820151908301526101408082015190830152610160808201519083015261018080820151908301526101a080820151908301526101c080820151908301526101e08082015190830152610200809101519101529601920196019592919092611655565b60118960019260409b9a989b5161175881613365565b6040516117698161027b818b613657565b815284870154838201526002870154604082015260038701546060820152600487015460808201528587015460a0820152600687015460c0820152600787015460e082015260088701546101008201526009870154610120820152600a870154610140820152600b870154610160820152600c870154610180820152600d8701546101a0820152600e8701546101c0820152600f8701546101e0820152601087015461020082015281520193019301929197949697611628565b50346101e75760403660031901126101e7576001600160401b03602435116101e757602435360360406003198201126103a25761185e614191565b60043582526003602052604082209061187c600483015415156137bf565b61189060ff600884015460081c16156138b1565b6040519063d0f18f8560e01b8252602060048301526024356004013560221982018112156123c35760243501906024600483013592016001600160401b03831161132e578260051b9283360382136123c75760406024860152606485018190526001600160fb1b031061132e578290608485013760c2190160248035013512156112fe57808201828103606001604480850191909152602480358082013501600481013560848501529081013560a4909301929092526001600160401b039161195991016138fd565b1660c482840101526001600160401b0361197e606460243560248035013501016138fd565b1682820160e401526024803590810135016084810135903603606219018112156123c35760c08383016101040152611a49906119e16119ca602480359081013501830160040180613911565b606061014487890101526101a48688010191613942565b611a35611a1d611a01602480358082013501860190810190600401613911565b610143949194199485898b018403016101648a8c010152613942565b92602480359081013501016044810190600401613911565b918587018403016101848688010152613942565b60248035908101350160a4810135929036036022190183121561132e57611aa784926020611a9a85946004839860243560248035013501010190610124608319828901870301918801015280613911565b9190928181520191613942565b03817307ad8508c9173dc845817472ca0484035abfa3c85afa908115612279578391612388575b501561234f576024803501356024350160a481013590602219813603018212156112fe5701600481013590602219813603018212156112fe57016004810135906001600160401b0382116112fe576024019080360382136112fe57611b4791611b389136916133f3565b602080825183010191016139a5565b8051604051611b6660208281610e5081830196878151938492016134ce565b51902060405160018401548186611b7c8361361d565b926001811690811561233157506001146122f0575b611ba4925003601f1981018352826133b7565b60208151910120036122b75760405190635cfa869760e11b8252602060048301528382611c0f611bf9611be3855160a0602486015260c48501906134f1565b60208601518482036023190160448601526134f1565b60408501518382036023190160648501526134f1565b606084015190602319838203016084840152815180825260208201916020808360051b83010194019286915b838310612284575050505050611c6390608083949501516023198483030160a4850152613c1e565b038173__$3db7b772cbf856ad84c0087fd7ee5880d8$__5af4908115612279578391612257575b50825b60808201805151821015611e945760043585526005602052611cb48260408720925161389d565b5190805490600160401b821015611e805790611cd59160018201815561371c565b919091611e6c5780518051906001600160401b038211611e5857611d0382611cfd865461361d565b8661375c565b602090601f8311600114611de85792611d3d836010946102009460019998978d92610b895750508160011b916000199060031b1c19161790565b84555b60208101518685015560408101516002850155606081015160038501556080810151600485015560a0810151600585015560c0810151600685015560e0810151600785015561010081015160088501556101208101516009850155610140810151600a850155610160810151600b850155610180810151600c8501556101a0810151600d8501556101c0810151600e8501556101e0810151600f850155015191015501611c8d565b908489526020892091895b601f1985168110611e40575083610200936001989796938993601097601f19811610611e27575b505050811b018455611d40565b015160001960f88460031b161c19169055388080611e1a565b91926020600181928685015181550194019201611df3565b634e487b7160e01b88526041600452602488fd5b634e487b7160e01b86526004869052602486fd5b634e487b7160e01b87526041600452602487fd5b5050600435835260046020526040832090835b825481101561202f57611ee6906080830151611ec38286613601565b5090604051938491633971b87160e01b8352604060048401526044830190613c1e565b60031982820301602483015260e0810160018060a01b03845416825260018401546020830152600284019060e060408401528154809152610100808401908260051b850101928c5260208c20918c5b818110611fff5750505050928160c06006611f72611f6188889760209a03606087015260038701613657565b848103608086015260048601613657565b93600581015460a08501520154910152038173__$3db7b772cbf856ad84c0087fd7ee5880d8$__5af48015611ff4578690611fc1575b600192506005611fb88387613601565b50015501611ea7565b506020823d602011611fec575b81611fdb602093836133b7565b810103126101e25760019151611fa8565b3d9150611fce565b6040513d88823e3d90fd5b9193600180929496975061201e60209260ff198a820301885288613657565b960194019101918895949392611f35565b505050600435825260046020526040822080549183905b836000198101116122435760001984018210156121a657845b6120698386613d2e565b60001981019081116121875781101561219b5760056120888286613601565b5001546001820182116121875760056120a46001840187613601565b500154116120b5575b60010161205f565b6120c261153c8286613601565b6120cf6001830186613601565b506120da8387613601565b91909161217357918183600195946121009403612107575b5050610fae84840188613601565b90506120ad565b858060a01b038154166001600160601b0360a01b835416178255858101548683015561213960028083019084016142b9565b61214960038201600384016141dc565b61215960048201600484016141dc565b6005810154600583015560068091015491015538806120f2565b634e487b7160e01b89526004899052602489fd5b634e487b7160e01b87526011600452602487fd5b509060010190612046565b929050835b81811061220b5750505061010261ffff196008830154161760088201557fbc9c1676dbbb8566f3bcb1dbd6c97d68c1464fad2c547d44e0b22875f6c916266040516020815280612205600435946001602084019101613657565b0390a280f35b6001810180821161222f579060019160066122268387613601565b500155016121ab565b634e487b7160e01b86526011600452602486fd5b634e487b7160e01b85526011600452602485fd5b61227391503d8085833e61226b81836133b7565b8101906139a5565b38611c8a565b6040513d85823e3d90fd5b92955092969550926020806122a5600193601f198682030187528a516134f1565b98019301930189959693889592611c3b565b60405162461bcd60e51b815260206004820152601160248201527009ac2e8c6d040928840dad2e6dac2e8c6d607b1b6044820152606490fd5b5050600185018652816020872087905b8382106123175750506020611ba492820101611b91565b602091925080600191548385880101520191018391612300565b60209250611ba494915060ff19168284015280151502820101611b91565b60405162461bcd60e51b815260206004820152601160248201527024b73b30b634b21023222190383937b7b360791b6044820152606490fd5b90506020813d6020116123bb575b816123a3602093836133b7565b81010312610565575180151581036105655738611ace565b3d9150612396565b8480fd5b8680fd5b5060403660031901126101e7576001600160401b03602480358281116112fe57366023820112156112fe5761240990369083816004013591016133f3565b91612412614191565b60043584526020926003845260408520612431600482015415156137bf565b60088101549060ff8216600481101561273e57600214908115612730575b50156126f65760ff6124659160081c16156138b1565b60405184810190858252601b60408201527f46646352657175657374466565436f6e66696775726174696f6e7300000000006060820152606081526124a98161339c565b5190209360405194630ac9aa5160e11b90818752600487015273ad67fe66660fb8dfe9d6b1b4240d8650e30f601982878781845afa9687156126eb5788976126cc575b50604051630507923b60e11b815260048101849052966001600160a01b0392908490899081868161251f8d82018c6134f1565b0392165afa9788156126c157899861268e575b50873410612639579083899594939288604051838101908482526006604082015265233231a43ab160d11b60608201526060815261256f8161339c565b519020916040519485938492835260048301525afa90811561262e578591612601575b501690813b156112fe576125c19660405180988195829463188e3cd560e21b84526004840152898301906134f1565b03925af180156125f6576125d3578380f35b82116125e457506040523880808380f35b634e487b7160e01b8352604160045282fd5b6040513d86823e3d90fd5b6126219150833d8511612627575b61261981836133b7565b8101906141bd565b38612592565b503d61260f565b6040513d87823e3d90fd5b60405162461bcd60e51b8152600481018590526028818901527f496e73756666696369656e742066656520666f72206174746573746174696f6e604482015267081c995c5d595cdd60c21b6064820152608490fd5b9097508381813d83116126ba575b6126a681836133b7565b810103126126b657519638612532565b8880fd5b503d61269c565b6040513d8b823e3d90fd5b6126e4919750833d85116126275761261981836133b7565b95386124ec565b6040513d8a823e3d90fd5b60405162461bcd60e51b8152600481018690526013818601527213585d18da081b9bdd08195b991959081e595d606a1b6044820152606490fd5b60059150015442113861244f565b634e487b7160e01b885260216004528588fd5b50346101e75760203660031901126101e75760043590600b548210156101e75760406103d883613478565b50346101e757602090816003193601126101e7576004359161279c614191565b8282526003815260408220916127b7600484015415156137bf565b60ff600884015460081c16156129d157838194939452600482526040812090600a835260408120948554956127eb876136ed565b936127f960405195866133b7565b878552612805886136ed565b85870197601f19918201368a3761283461281e8b6136ed565b9a61282c6040519c8d6133b7565b808c526136ed565b8a890192013683376006869501945b845481101561293257835461285882876134b2565b50541161292a576128698185613601565b508654600161287884896134b2565b500154908181029181830414901517156129165761271090049060018060a01b03908980808086868654165af16128ad61386d565b50156128d957838e8c6128cb8360019897966128d19654169261389d565b5261389d565b525b01612843565b60405162461bcd60e51b8152600481018d90526015602482015274141c9a5e99481d1c985b9cd9995c8819985a5b1959605a1b6044820152606490fd5b634e487b7160e01b89526011600452602489fd5b6001906128d3565b50859087898b8d6040519360408501906040865251809152606085019290875b8181106129b45750505083820384840152518082529082019591855b8281106129a05786867fdf1170406f09e2646fd7a4e7a758d06a57e00639018cf37c64e8aee2c741aeb3878b0388a280f35b83518852968101969281019260010161296e565b82516001600160a01b031685529385019391850191600101612952565b60405162461bcd60e51b815260048101839052601460248201527314d8dbdc995cc81b9bdd08199a5b985b1a5e995960621b6044820152606490fd5b50346101e75760403660031901126101e757602460043581356001600160401b0381116112fe57612a42903690600401613448565b612a4a614191565b82855260209060038252612a66600460408820015415156137bf565b838652600382526007604087200154612b985785865b828110612b7e5750612710612a919114613821565b838652600a8083526040872080549088815581612b2c575b5050865b828110612ab8578780f35b85885281845260408820612acd828588613804565b908054600160401b811015612b1957612aed9060019283820181556134b2565b929092612b065780358355860135910155600101612aad565b634e487b7160e01b8b5260048b9052898bfd5b634e487b7160e01b8b526041600452898bfd5b6001906001600160ff1b0383168303612b6a5789528489209160011b8201915b828110612b595750612aa9565b808a600292558a8382015501612b4c565b634e487b7160e01b8a52601160045260248afd5b90612b916001918561055685878a613804565b9101612a7c565b60405162461bcd60e51b815260048101839052602760248201527f43616e6e6f74206368616e6765206166746572207061727469636970616e7473604482015266081a9bda5b995960ca1b6064820152608490fd5b50346101e75760a03660031901126101e7576004356001600160401b0381116103a257612c1e90369060040161342a565b6024356001600160401b03811161056557612c3d90369060040161342a565b60643560843591612c4c614191565b60056040516020818751612c638183858c016134ce565b81016008815203019020541015613254574282111561321057818311156131c1576040516020810190612ce160a0828851612ca2818760208d016134ce565b8101865190612cb8826020830160208b016134ce565b0160443560208201528760408201528860608201524260808201520360808101845201826133b7565b519020928386526003602052600460408720015461317c5760405192612d0684613349565b848452602084019286845260408501526044356060850152608084015260a08301528460c08301528460e083015284610100830152846101208301528285526003602052604085209082518255518051906001600160401b038211611e8057612d7f82612d76600186015461361d565b6001860161375c565b602090601f831160011461310d57612dae9291889183610b895750508160011b916000199060031b1c19161790565b60018201555b60408201518051906001600160401b038211611e8057612de482612ddb600286015461361d565b6002860161375c565b602090601f831160011461309d579180612e1792600895948a92610b895750508160011b916000199060031b1c19161790565b60028201555b606083015160038201556080830151600482015560a0830151600582015560c0830151600682015560e08301516007820155019061010081015160048110156130895790612e6e6101209284613798565b0151151561ff0082549160081b169061ff0019161790556040516020818451612e9a81838589016134ce565b81016007815203019020908154600160401b928382101561307557612ec982612ee09260018695018155613704565b819391549060031b91821b91600019901b19161790565b90556040516020818551612ef78183858a016134ce565b81016008815203019020612f0b81546137b0565b9055600254828110156110fb576001810180600255811015613061578190600286527f405787fa12a823e0f2b7631cc41b3ba8828b3321ca811111fa75cd3aa3bb5ace01556002546040516020818651612f688183858b016134ce565b8101600981520301902080549084821015611e805781612ec9916001612f9094018155613704565b9055835b600b5481101561301257818552600a60205260408520612fb382613478565b509080549085821015611e585790612fd0916001820181556134b2565b919091612ffe579081600193928203612fec575b505001612f94565b80548255830154908301553880612fe4565b634e487b7160e01b87526004879052602487fd5b602082807f4e07bfa1c3b21d3be63af156de05b9ac1b7892062069bc522301b73b93b79b3161304f886040519182916040835260408301906134f1565b604435878301520390a2604051908152f35b634e487b7160e01b85526032600452602485fd5b634e487b7160e01b86526041600452602486fd5b634e487b7160e01b86526021600452602486fd5b906002840188526020882091885b601f19851681106130f5575091839160019360089695601f198116106130dc575b505050811b016002820155612e1d565b015160001960f88460031b161c191690553880806130cc565b919260206001819286850151815501940192016130ab565b9190600184018852602088209088935b601f1984168510613161576001945083601f19811610613148575b505050811b016001820155612db4565b015160001960f88460031b161c19169055388080613138565b8181015183556020948501946001909301929091019061311d565b60405162461bcd60e51b815260206004820152601960248201527f436f6e7465737420494420616c726561647920657869737473000000000000006044820152606490fd5b60405162461bcd60e51b815260206004820152602160248201527f456e642074696d65206d7573742062652061667465722073746172742074696d6044820152606560f81b6064820152608490fd5b606460405162461bcd60e51b815260206004820152602060248201527f53746172742074696d65206d75737420626520696e20746865206675747572656044820152fd5b60405162461bcd60e51b815260206004820152601e60248201527f4d617820636f6e746573747320706572206d61746368207265616368656400006044820152606490fd5b9050346103a257816003193601126103a257600280548083529083526020808301937f405787fa12a823e0f2b7631cc41b3ba8828b3321ca811111fa75cd3aa3bb5ace92915b8282106132f65761079a85610acf818903826133b7565b8354865294850194600193840193909101906132df565b602090602060408183019282815285518094520193019160005b828110613335575050505090565b835185529381019392810192600101613327565b61014081019081106001600160401b038211176104b857604052565b61022081019081106001600160401b038211176104b857604052565b60e081019081106001600160401b038211176104b857604052565b608081019081106001600160401b038211176104b857604052565b90601f801991011681019081106001600160401b038211176104b857604052565b6001600160401b0381116104b857601f01601f191660200190565b9291926133ff826133d8565b9161340d60405193846133b7565b8294818452818301116101e2578281602093846000960137010152565b9080601f830112156101e257816020613445933591016133f3565b90565b9181601f840112156101e2578235916001600160401b0383116101e2576020808501948460061b0101116101e257565b600b5481101561076257600b60005260011b7f0175b7a638427703f0dbe7bb9bbf987a2551717b34e79f33b5b1008d1fa01db90190600090565b80548210156107625760005260206000209060011b0190600090565b60005b8381106134e15750506000910152565b81810151838201526020016134d1565b9060209161350a815180928185528580860191016134ce565b601f01601f1916010190565b602435906001600160a01b03821682036101e257565b9060e0810160018060a01b038351168252602080840151602084015260408401519160e060408501528251809152610100916020838601938360051b8701019401926000905b8382106135bf57505050505060c06135ac61359a8293606087015186820360608801526134f1565b608086015185820360808701526134f1565b9360a081015160a0850152015191015290565b909192939483806135dc60019360ff198b820301865289516134f1565b97019201920190939291613572565b60409060031901126101e2576004359060243590565b8054821015610762576000526007602060002091020190600090565b90600182811c9216801561364d575b602083101461363757565b634e487b7160e01b600052602260045260246000fd5b91607f169161362c565b8054600093926136668261361d565b918282526020936001916001811690816000146136ce575060011461368d575b5050505050565b90939495506000929192528360002092846000945b8386106136ba57505050500101903880808080613686565b8054858701830152940193859082016136a2565b60ff19168685015250505090151560051b010191503880808080613686565b6001600160401b0381116104b85760051b60200190565b80548210156107625760005260206000200190600090565b8054821015610762576000526011602060002091020190600090565b90600482101561038c5752565b818110613750575050565b60008155600101613745565b9190601f811161376b57505050565b613796926000526020600020906020601f840160051c83019310610c6057601f0160051c0190613745565b565b90600481101561038c5760ff80198354169116179055565b600019811461052d5760010190565b156137c657565b60405162461bcd60e51b815260206004820152601660248201527510dbdb9d195cdd08191bd95cc81b9bdd08195e1a5cdd60521b6044820152606490fd5b91908110156107625760061b0190565b9190820180921161052d57565b1561382857565b60405162461bcd60e51b815260206004820152601d60248201527f546f74616c2070657263656e74616765206d75737420626520313030250000006044820152606490fd5b3d15613898573d9061387e826133d8565b9161388c60405193846133b7565b82523d6000602084013e565b606090565b80518210156107625760209160051b010190565b156138b857565b60405162461bcd60e51b815260206004820152601860248201527f53636f72657320616c72656164792066696e616c697a656400000000000000006044820152606490fd5b35906001600160401b03821682036101e257565b9035601e19823603018112156101e25701602081359101916001600160401b0382116101e25781360383136101e257565b908060209392818452848401376000828201840152601f01601f1916010190565b81601f820112156101e2578051613979816133d8565b9261398760405194856133b7565b818452602082840101116101e25761344591602080850191016134ce565b90602080838303126101e25782516001600160401b03938482116101e257019160a09060a0848203126101e25760409182519560a08701878110828211176104b857845285518181116101e257836139fe918801613963565b8752848601518181116101e25783613a17918801613963565b85880152838601518181116101e25783613a32918801613963565b8488015260609160608701518281116101e257870184601f820112156101e2578051613a5d816136ed565b91613a6a885193846133b7565b818352888084019260051b820101918783116101e257898201905b838210613bf9575050505060608901526080966080810151908382116101e257019484601f870112156101e257855193613abe856136ed565b98613acb83519a8b6133b7565b858a5288808b019660051b890101978789116101e257898101965b898810613b00575050505050505050505050608082015290565b87518781116101e25782016102209182601f19838d0301126101e2578651613b2781613365565b8d830151928a84116101e2578e94613b448e878097850101613963565b83528982015185840152888201518a84015287820151898401528a8201518884015260c091828101518c85015260e09283820151908501526101009283820151908501526101209283820151908501526101409283820151908501526101609283820151908501526101809283820151908501526101a09283820151908501526101c09283820151908501526101e0928382015190850152610200928382015190850152015190820152815201970196613ae6565b81518781116101e2578b91613c138b848094880101613963565b815201910190613a85565b908082519081815260208091019281808460051b8301019501936000915b848310613c4c5750505050505090565b9091929394958480600192601f19858203018652895190613c776102208351908084528301906134f1565b91838101518483015260408082015190830152606080820151908301526080808201519083015260a0808201519083015260c0808201519083015260e08082015190830152610100808201519083015261012080820151908301526101408082015190830152610160808201519083015261018080820151908301526101a080820151908301526101c080820151908301526101e08082015190830152610200809101519101529801930193019194939290613c3c565b9190820391821161052d57565b90604091825190613d4b82613381565b819360018060a01b03825416835260018083015490602091602086015260028401805490613d78826136ed565b93613d85865195866133b7565b828552602085019160005260206000206000925b848410613df157505050505050918160c0936006938601528051613dc48161027b8160038701613657565b606086015251613ddb8161027b8160048601613657565b6080850152600581015460a08501520154910152565b858381928a51613e058161027b8189613657565b815201920193019290613d99565b600160401b82116104b857805491808255828110613e3057505050565b60009182526020906020832093840193015b838110613e4f5750505050565b8083613e5d6001935461361d565b80613e6b575b505001613e42565b601f8082118514613e8257505081555b8338613e63565b613e9b90848452868420920160051c8201858301613745565b81835555613e7b565b91906104a25760018060a01b038151166001600160601b0360a01b835416178255600160209081830151818501556002840191604084015181815191613eea8387613e13565b01600094855282852085915b8383106140b55750505050600385019160608501519283516001600160401b0394858211611e8057613f3282613f2c855461361d565b8561375c565b8490601f831160011461405657613f609291889183610b895750508160011b916000199060031b1c19161790565b90555b6004860193608086015191825194851161404257613f8b85613f85885461361d565b8861375c565b83601f8611600114613fd5575050928060c09593613fc1936006989692610b895750508160011b916000199060031b1c19161790565b90555b60a081015160058501550151910155565b86835280832091959491939192601f198616915b82821061402b575050916006979593918560c098969410614012575b505050811b019055613fc4565b015160001960f88460031b161c19169055388080614005565b808886978294978701518155019601940190613fe9565b634e487b7160e01b82526041600452602482fd5b8388528588208593929091601f1984168a5b8982821061409f5750508411614086575b505050811b019055613f63565b015160001960f88460031b161c19169055388080614079565b8385015186558997909501949384019301614068565b80519081516001600160401b03811161417d578791816140da8993613f85885461361d565b82948b601f831160011461411a57918596819261410b9492610b895750508160011b916000199060031b1c19161790565b85555b01920192019190613ef6565b50868c52838c209095601f1983168d5b818110614166575090869784889594931061414d575b505050811b01855561410e565b015160001960f88460031b161c19169055388080614140565b8289015184558d978d97940193928301920161412a565b634e487b7160e01b89526041600452602489fd5b6000546001600160a01b031633036141a557565b60405163118cdaa760e01b8152336004820152602490fd5b908160209103126101e257516001600160a01b03811681036101e25790565b908082146142b5576141ee815461361d565b906001600160401b0382116104b85761420b82613f2c855461361d565b600090601f831160011461424a5761423b92916000918361423f5750508160011b916000199060031b1c19161790565b9055565b015490503880610b6f565b815260208082208483528183209291601f1985169083905b82821061429c575050908460019594939210614283575b505050811b019055565b015460001960f88460031b161c19169055388080614279565b8495819295850154815560018091019601940190614262565b5050565b8181146142b5578154916142cd8383613e13565b6000526020600020906000526020600020906000905b8382106142f05750505050565b806142fd600192856141dc565b9281019291810191016142e356fea26469706673582212206b9d5d58670683d1305eb04447536ef40eececd5cd0313614fe709ae7c95aa2964736f6c63430008190033","linkReferences":{"src/ScoringEngine.sol":{"ScoringEngine":[{"start":8113,"length":20},{"start":8912,"length":20}]}}},"methodIdentifiers":{"contestPlayerPerformances(bytes32,uint256)":"ba53fd8d","contestPrizeBreakdowns(bytes32,uint256)":"ee413bea","contestTeams(bytes32,uint256)":"68432bfe","contests(bytes32)":"ea269c84","createContest(string,string,uint256,uint256,uint256)":"10dd371c","defaultPrizeBreakdown(uint256)":"447ab022","distributePrizes(bytes32)":"2ecacb2e","finalizeScores(bytes32,(bytes32[],(bytes32,bytes32,uint64,uint64,(string,string,string),(bytes))))":"5bb0d0db","getAllContestTeams(bytes32)":"a7ce04fb","getAllContests()":"03cfb847","getAllContestsForMatch(string)":"cbe17bcf","getContest(bytes32)":"f22d36a2","getContestCount()":"64c3c166","getMatchContests(string)":"a0505c35","getPlayerPerformances(bytes32)":"64877505","getUserTeam(bytes32,address)":"6753c589","matchContestCount(string)":"be01e9b7","matchContests(string,uint256)":"87e7d22a","owner()":"8da5cb5b","renounceOwnership()":"715018a6","requestMatchData(bytes32,bytes)":"5b8acf35","setContestPrizeBreakdown(bytes32,(uint256,uint256)[])":"24d07651","setDefaultPrizeBreakdown((uint256,uint256)[])":"eaa150d3","submitTeam(bytes32,string[],string,string)":"85fb8ab9","transferOwnership(address)":"f2fde38b","updateContestStatus(bytes32,uint8)":"6e5e3f5e","updateCricketApiKey(string)":"8facd93f","userContestEntries(bytes32,address)":"a1e516fd"},"id":114}